:100000000C9452000C9464000C9464000C946400F2
:100010000C9464000C9464000C9464000C946400D0
:100020000C9464000C9464000C9464000C946400C0
:100030000C9464000C9464000C9464000C946400B0
:100040000C9466000C9464000C9464000C9464009E
:100050000C9464000C9464000C9464000C94640090
:100060000C9464000C94640000000000250028003B
:100070002B0000000000240027002A0004040404D0
:100080000404040402020202020203030303030342
:10009000010204081020408001020408102001021F
:1000A0000408102011241FBECFEFD8E0DEBFCDBF63
:1000B00021E0A0E0B1E001C01D92AD30B207E1F750
:1000C0000E94B0000C9416030C9400001F920F9233
:1000D0000FB60F9211242F933F938F939F93AF935B
:1000E000BF938091090190910A01A0910B01B091F9
:1000F0000C013091080123E0230F2D3720F40196E5
:10010000A11DB11D05C026E8230F0296A11DB11D3A
:10011000209308018093090190930A01A0930B0199
:10012000B0930C018091040190910501A09106010A
:10013000B09107010196A11DB11D80930401909318
:100140000501A0930601B0930701BF91AF919F9164
:100150008F913F912F910F900FBE0F901F90189588
:10016000789484B5826084BD84B5816084BD85B592
:10017000826085BD85B5816085BD80916E0081609E
:1001800080936E0010928100809181008260809344
:100190008100809181008160809381008091800046
:1001A0008160809380008091B10084608093B10071
:1001B0008091B00081608093B00080917A0084606B
:1001C00080937A0080917A00826080937A00809197
:1001D0007A00816080937A0080917A0080688093B1
:1001E0007A001092C10020E030E0F901E057FF4FA3
:1001F0004491F901E458FF4F8491882399F090E0ED
:10020000880F991FFC01EE58FF4FA591B491FC0196
:10021000E859FF4F859194918FB7F894EC91E42BB6
:10022000EC938FBF2F5F3F4F28303105F1F6EEE999
:10023000F0E02491EAE8F0E084918823C1F090E0B6
:10024000880F991FFC01EE58FF4FC591D491FC0116
:10025000E859FF4FA591B4919FB7F8948881E22F98
:10026000E0958E2388838C91E823EC939FBFC0E0B8
:10027000D0E010E410937C0080917A008064809339
:100280007A0080917A0086FDFCCF609178008091A1
:10029000790070E0782B072E000C880B990B0E94D8
:1002A0001D0220E030EC4FE754E40E94730120E08F
:1002B00030E44CE955E40E94A90260930001709378
:1002C0000101809302019093030120E030E040E2BD
:1002D00051E40E9473010E94E5016BB9209751F22D
:1002E0000E940000C7CF0E9487010C946F020E94F9
:1002F000680258F00E94610240F029F45F3F29F043
:100300000C94580251110C94A3020C945E020E94AA
:10031000800268F39923B1F3552391F3951B550B94
:10032000BB27AA2762177307840738F09F5F5F4FC8
:10033000220F331F441FAA1FA9F335D00E2E3AF007
:10034000E0E832D091505040E695001CCAF72BD01F
:10035000FE2F29D0660F771F881FBB1F2617370770
:100360004807AB07B0E809F0BB0B802DBF01FF27A2
:1003700093585F4F3AF09E3F510578F00C94580225
:100380000C94A3025F3FE4F3983ED4F386957795EF
:100390006795B795F7959F5FC9F7880F911D96955B
:1003A000879597F90895E1E0660F771F881FBB1FB7
:1003B000621773078407BA0720F0621B730B840B64
:1003C000BA0BEE1F88F7E09508950E94EC0168943F
:1003D000B1110C94A30208950E94880288F09F57DF
:1003E00098F0B92F9927B751B0F0E1F0660F771F59
:1003F000881F991F1AF0BA95C9F714C0B13091F04F
:100400000E94A202B1E008950C94A202672F782FF7
:100410008827B85F39F0B93FCCF386957795679513
:10042000B395D9F73EF490958095709561957F4F7F
:100430008F4F9F4F0895E89409C097FB3EF4909525
:100440008095709561957F4F8F4F9F4F9923A9F0AD
:10045000F92F96E9BB279395F6958795779567953C
:10046000B795F111F8CFFAF4BB0F11F460FF1BC080
:100470006F5F7F4F8F4F9F4F16C0882311F096E913
:1004800011C0772321F09EE8872F762F05C06623C1
:1004900071F096E8862F70E060E02AF09A95660F7A
:1004A000771F881FDAF7880F9695879597F9089533
:1004B00097F99F6780E870E060E008959FEF80EC17
:1004C000089500240A9416161706180609060895BA
:1004D00000240A9412161306140605060895092E20
:1004E0000394000C11F4882352F0BB0F40F4BF2B8F
:1004F00011F460FF04C06F5F7F4F8F4F9F4F0895CF
:1005000057FD9058440F551F59F05F3F71F04795C4
:10051000880F97FB991F61F09F3F79F087950895A9
:10052000121613061406551FF2CF4695F1DF08C0C8
:10053000161617061806991FF1CF869571056105E5
:1005400008940895E894BB2766277727CB0197F98D
:1005500008950E94BC020C946F020E94610238F060
:100560000E94680220F0952311F00C9458020C941C
:100570005E0211240C94A3020E94800270F3959FE6
:10058000C1F3950F50E0551F629FF001729FBB278A
:10059000F00DB11D639FAA27F00DB11DAA1F649F26
:1005A0006627B00DA11D661F829F2227B00DA11DD9
:1005B000621F739FB00DA11D621F839FA00D611D5F
:1005C000221F749F3327A00D611D231F849F600D80
:1005D000211D822F762F6A2F11249F5750409AF0A9
:1005E000F1F088234AF0EE0FFF1FBB1F661F771F35
:1005F000881F91505040A9F79E3F510580F00C9400
:1006000058020C94A3025F3FE4F3983ED4F386951E
:1006100077956795B795F795E7959F5FC1F7FE2B9F
:10062000880F911D9695879597F90895F894FFCFB7
:00000001FF
