:100000000C9452000C946F000C946F000C946F00D1
:100010000C946F000C946F000C946F000C946F00A4
:100020000C946F000C946F000C946F000C946F0094
:100030000C946F000C946F000C946F000C946F0084
:100040000C94B0000C946F000C946F000C946F0033
:100050000C946F000C946F000C946F000C946F0064
:100060000C946F000C946F00000000002500280025
:100070002B0000000000240027002A0004040404D0
:100080000404040402020202020203030303030342
:10009000010204081020408001020408102001021F
:1000A0000408102011241FBECFEFD8E0DEBFCDBF63
:1000B00011E0A0E0B1E0ECE7F4E002C005900D92A1
:1000C000A831B107D9F721E0A8E1B1E001C01D9244
:1000D000A532B207E1F70E94FA000C943C020C949E
:1000E00000003FB7F8948091190190911A01A091F6
:1000F0001B01B0911C0126B5A89B05C02F3F19F02C
:100100000196A11DB11D3FBFBA2FA92F982F882797
:10011000820F911DA11DB11DBC01CD0142E0660FF2
:10012000771F881F991F4A95D1F70895CF92DF92C4
:10013000EF92FF920E9471006B017C010E9471009E
:10014000DC01CB018C199D09AE09BF09883E9340A3
:10015000A105B10598F3FF90EF90DF90CF9008953F
:100160001F920F920FB60F9211242F933F938F93EC
:100170009F93AF93BF9380911D0190911E01A09119
:100180001F01B09120013091180123E0230F2D377A
:1001900020F40196A11DB11D05C026E8230F02968B
:1001A000A11DB11D2093180180931D0190931E0184
:1001B000A0931F01B09320018091190190911A0121
:1001C000A0911B01B0911C010196A11DB11D80934E
:1001D000190190931A01A0931B01B0931C01BF91C8
:1001E000AF919F918F913F912F910F900FBE0F90E4
:1001F0001F901895789484B5826084BD84B5816021
:1002000084BD85B5826085BD85B5816085BD8091E1
:100210006E00816080936E00109281008091810059
:100220008260809381008091810081608093810051
:10023000809180008160809380008091B100846013
:100240008093B1008091B00081608093B000809174
:100250007A00846080937A0080917A008260809333
:100260007A0080917A00816080937A0080917A0090
:10027000806880937A001092C10020E030E0F9019C
:10028000E057FF4F4491F901E458FF4F84918823D0
:1002900099F090E0880F991FFC01EE58FF4FA5914F
:1002A000B491FC01E859FF4F859194918FB7F89470
:1002B000EC91E42BEC938FBF2F5F3F4F2E30310535
:1002C000F1F62FB7F89480911D0190911E01A09135
:1002D0001F01B09120012FBF809321019093220133
:1002E000A0932301B093240147EFD42E0AE010E03D
:1002F0005BEFC52E6DEFB62E7EEFA72EE0E0EE2E63
:10030000E0E0FE2E2FB7F89480911D0190911E0120
:10031000A0911F01B09120012FBF40912101509168
:1003200022016091230170912401841B950BA60B7F
:10033000B70B893E9340A105B105E0F02FB7F894C3
:1003400080911D0190911E01A0911F01B09120018B
:100350002FBF8093210190932201A0932301B0939A
:100360002401809102019091030101969093030171
:10037000809302018091020190910301CC97ACF02F
:1003800010920301109202018091000190910101ED
:1003900001968C3391052CF4909301018093000118
:1003A00004C01092010110920001C0910201D0918D
:1003B00003018091000190910101D5B8B8010E941C
:1003C00014024C01660F771FFB01EC5FFE4F80812A
:1003D0008BB90E949600C5B8F401EE0FFF1FEC5FC9
:1003E000FE4F80818BB90E949600B5B8CE01B8014E
:1003F0000E941402EC01660F771FFB01EC5FFE4FB9
:1004000080818BB90E949600A5B8CC0FDD1FCC5F10
:10041000DE4F88818BB90E949600E114F10409F443
:1004200071CF0E9400006ECF97FB072E16F4009448
:1004300007D077FD09D00E94280207FC05D03EF4C2
:10044000909581959F4F0895709561957F4F089580
:10045000AA1BBB1B51E107C0AA1FBB1FA617B707EA
:1004600010F0A61BB70B881F991F5A95A9F7809506
:0C0470009095BC01CD010895F894FFCFD9
:10047C003B0037003F0006005B004F0066006D003C
:08048C007D0007007F006F00F6
:00000001FF
