:100000000C945D000C9485000C9485000C94850084
:100010000C9485000C9485000C9485000C9485004C
:100020000C9485000C9485000C9485000C9485003C
:100030000C9485000C9485000C9485000C9485002C
:100040000C94EE020C9485000C9485000C948500B1
:100050000C9485000C9485000C9485000C9485000C
:100060000C9485000C94850000000008000201003B
:100070000003040700000000000000000000000072
:10008000250028002B0000000000240027002A0083
:10009000040404040404040402020202020203032E
:1000A0000303030301020408102040800102040836
:1000B0001020010204081020F30311241FBECFEF0B
:1000C000D8E0DEBFCDBF11E0A0E0B1E0EEE3F8E0A4
:1000D00002C005900D92A432B107D9F721E0A4E245
:1000E000B1E001C01D92A534B207E1F710E0CDE503
:1000F000D0E004C02197FE010E941204CC35D10744
:10010000C9F70E9438030C941D040C94000090E081
:10011000FC01EC55FF4F2491FC01E057FF4F849107
:10012000882399F090E0880F991FFC01EA57FF4F50
:10013000A591B491FC01E458FF4F859194918FB73C
:10014000F894EC91E22BEC938FBF0895CF92DF925D
:10015000EF92FF920F931F93CF93DF936C017A017D
:100160008B01C0E0D0E0CE15DF0589F0D8016D919C
:100170008D01D601ED91FC910190F081E02DC60139
:100180000995892B11F47E0102C02196ECCFC7019D
:10019000DF91CF911F910F91FF90EF90DF90CF9063
:1001A000089590E0FC01E859FF4F3491FC01EC55B3
:1001B000FF4F2491FC01E057FF4FE491EE2309F437
:1001C0003BC0332339F1333091F038F43130A9F0AA
:1001D000323001F584B58F7D12C0373091F0383060
:1001E000A1F03430B9F4809180008F7D03C08091FC
:1001F00080008F77809380000DC084B58F7784BD99
:1002000009C08091B0008F7703C08091B0008F7DCE
:100210008093B000F0E0EE0FFF1FE458FF4FA59170
:10022000B4918FB7F894EC91611103C020952E23FF
:1002300001C02E2B2C938FBF08953FB7F894809167
:10024000290190912A01A0912B01B0912C0126B592
:10025000A89B05C02F3F19F00196A11DB11D3FBFFE
:10026000BA2FA92F982F8827820F911DA11DB11D8C
:10027000BC01CD0142E0660F771F881F991F4A9588
:10028000D1F708958F929F92AF92BF92CF92DF9253
:10029000EF92FF926B017C010E941D014B015C01FA
:1002A000C114D104E104F104F1F00E941D01DC014C
:1002B000CB0188199909AA09BB09883E9340A10579
:1002C000B10570F321E0C21AD108E108F10888EE07
:1002D000880E83E0981EA11CB11CC114D104E10456
:1002E000F10419F7DDCFFF90EF90DF90CF90BF9032
:1002F000AF909F908F900895CF93DF93EC0160E0D3
:100300008E810E94D10061E08E810E94D10060E068
:100310008E810E94D1008BE891E00197F1F7DF9187
:10032000CF910895CF92DF92EF92FF920F931F9398
:10033000CF93DF937C016C0187E0C80ED11CC0E035
:10034000D0E0062F10E0B8010C2E02C0759567951D
:100350000A94E2F76170F60181916F010E94D10069
:100360002196C430D10579F7C701DF91CF911F9154
:100370000F91FF90EF90DF90CF900C947C01CF9283
:10038000DF92EF92FF920F931F93CF93DF93EC01D5
:10039000F62E642F8C810E94D1008D818F3F19F041
:1003A00060E00E94D1008F850F2D10E084FF25C0F2
:1003B0006E0187E0C80ED11CE12CF12CB8010E2C87
:1003C00002C0759567950A94E2F76170F601819114
:1003D0006F010E94D100FFEFEF1AFF0A88E0E816D4
:1003E000F10461F7CE01DF91CF911F910F91FF9042
:1003F000EF90DF90CF900C947C01B80184E075956C
:1004000067958A95E1F7CE010E9492016F2DCE018A
:10041000DF91CF911F910F91FF90EF90DF90CF90E0
:100420000C94920141E00E94BF0181E090E00895A8
:1004300040E00C94BF01EF92FF920F931F93CF9374
:10044000DF93EC01623018F08F8588608F876B8BAB
:100450001C8A80E48D8B80E18E8B80E58F8B8C8174
:100460000E9487008D818F3F11F00E9487008E814E
:100470000E9487007E0187E0E80EF11C00E010E09A
:100480008F8584FD03C084E090E002C088E090E0A6
:100490000817190744F4F70181917F010E94870032
:1004A0000F5F1F4FEDCF8BE39DE00197F1F760E009
:1004B0008C810E94D10060E08E810E94D1008D81EC
:1004C0008F3F19F060E00E94D1006F8564FD1DC070
:1004D00063E0CE010E9492010BE416E4C80101978B
:1004E000F1F763E0CE010E949201C8010197F1F794
:1004F00063E0CE010E94920183E592E00197F1F75B
:1005000062E0CE010E94920116C06062CE010E949C
:1005100018028BE496E40197F1F76F856062CE01D3
:100520000E94180283E592E00197F1F76F856062FF
:10053000CE010E9418026F856062CE010E941802EF
:1005400084E0888B6CE0CE010E94180261E0CE014D
:100550000E9418028BE39FE10197F1F782E0898BFB
:1005600066E0CE01DF91CF911F910F91FF90EF9048
:100570000C941802EF92FF920F931F93CF93DF9387
:100580001F92CDB7DEB7162F877028E0829FC0017B
:100590001124682F60648DE291E079830E94180233
:1005A000E12E7981F72E8701085F1F4FF7016191D6
:1005B0007F018DE291E00E941202E016F106B1F790
:1005C0000F90DF91CF911F910F91FF90EF900895C1
:1005D000089580E090E008950E9418041F920F9201
:1005E0000FB60F9211242F933F938F939F93AF9346
:1005F000BF938091250190912601A0912701B09190
:1006000028013091240123E0230F2D3720F4019697
:10061000A11DB11D05C026E8230F0296A11DB11D25
:10062000209324018093250190932601A093270114
:10063000B09328018091290190912A01A0912B016A
:10064000B0912C010196A11DB11D809329019093B9
:100650002A01A0932B01B0932C01BF91AF919F91E0
:100660008F913F912F910F900FBE0F901F90189573
:10067000789484B5826084BD84B5816084BD85B57D
:10068000826085BD85B5816085BD80916E00816089
:1006900080936E001092810080918100826080932F
:1006A0008100809181008160809381008091800031
:1006B0008160809380008091B10084608093B1005C
:1006C0008091B00081608093B00080917A00846056
:1006D00080937A0080917A00826080937A00809182
:1006E0007A00816080937A0080917A00806880939C
:1006F0007A001092C10062E08DE291E00E941B023C
:1007000060E171E080E00E94BA0268E071E081E09F
:100710000E94BA0260E071E082E00E94BA02CBE37C
:10072000DFE100E010E0F12CE1E080914001811177
:10073000E0E0E195F0E0E35DFE4F6489685F6068AA
:100740008DE291E00E94180260E08DE291E00E944B
:100750001202E1E0809140018111E0E0E195F0E0DA
:10076000E35DFE4F64896F0D60688DE291E00E9449
:10077000180261E08DE291E00E94120264E670E0EE
:1007800080E090E00E94420161E08DE291E00E94F1
:100790001802CE010197F1F7F39489E0F812C4CF63
:1007A000E0914001E23010F4E15001C0E1E0F0E0FE
:1007B000E35DFE4F6489675F60688DE291E00E94AF
:1007C000180262E08DE291E00E94120264EF71E093
:1007D00080E090E00E9442010115110509F4A3CFC9
:1007E0000E940000A0CFEDE2F1E0138212828CE1C2
:1007F00091E0918380838CE084838FEF85838BE00D
:10080000868385E0878384E0808783E0818782E038
:1008100082871386148615861686178661E0CF01B7
:100820000C941B02EE0FFF1F0590F491E02D09942C
:0E08300081E090E0F8940C941D04F894FFCF42
:10083E000001070E1C0E07010004021F0204000037
:10084E00000A1F1F1F0E0400000000001202A60067
:04085E00E902E802C1
:00000001FF
