:100000000C945D000C9485000C9485000C94850084
:100010000C9485000C9485000C9485000C9485004C
:100020000C9485000C9485000C9485000C9485003C
:100030000C9485000C9485000C9485000C9485002C
:100040000C9465020C9485000C9485000C9485003A
:100050000C9485000C9485000C9485000C9485000C
:100060000C9485000C94850000000008000201003B
:100070000003040700000000000000000000000072
:10008000250028002B0000000000240027002A0083
:10009000040404040404040402020202020203032E
:1000A0000303030301020408102040800102040836
:1000B0001020010204081020060311241FBECFEFF8
:1000C000D8E0DEBFCDBF11E0A0E0B1E0E4E6F6E0AD
:1000D00002C005900D92AA31B107D9F721E0AAE13B
:1000E000B1E001C01D92AB33B207E1F710E0CDE5FE
:1000F000D0E004C02197FE010E942503CC35D10732
:10010000C9F70E94AF020C9430030C94000090E0F9
:10011000FC01EC55FF4F2491FC01E057FF4F849107
:10012000882399F090E0880F991FFC01EA57FF4F50
:10013000A591B491FC01E458FF4F859194918FB73C
:10014000F894EC91E22BEC938FBF0895CF92DF925D
:10015000EF92FF920F931F93CF93DF936C017A017D
:100160008B01C0E0D0E0CE15DF0589F0D8016D919C
:100170008D01D601ED91FC910190F081E02DC60139
:100180000995892B11F47E0102C02196ECCFC7019D
:10019000DF91CF911F910F91FF90EF90DF90CF9063
:1001A000089590E0FC01E859FF4F3491FC01EC55B3
:1001B000FF4F2491FC01E057FF4FE491EE2309F437
:1001C0003BC0332339F1333091F038F43130A9F0AA
:1001D000323001F584B58F7D12C0373091F0383060
:1001E000A1F03430B9F4809180008F7D03C08091FC
:1001F00080008F77809380000DC084B58F7784BD99
:1002000009C08091B0008F7703C08091B0008F7DCE
:100210008093B000F0E0EE0FFF1FE458FF4FA59170
:10022000B4918FB7F894EC91611103C020952E23FF
:1002300001C02E2B2C938FBF0895CF93DF93EC0139
:1002400060E08E810E94D10061E08E810E94D10029
:1002500060E08E810E94D1008BE891E00197F1F778
:10026000DF91CF910895CF92DF92EF92FF920F939B
:100270001F93CF93DF937C016C0187E0C80ED11CE4
:10028000C0E0D0E0062F10E0B8010C2E02C075953A
:1002900067950A94E2F76170F60181916F010E94FF
:1002A000D1002196C430D10579F7C701DF91CF91F4
:1002B0001F910F91FF90EF90DF90CF900C941D0154
:1002C000CF92DF92EF92FF920F931F93CF93DF9322
:1002D000EC01F62E642F8C810E94D1008D818F3F1E
:1002E00019F060E00E94D1008F850F2D10E084FF8F
:1002F00025C06E0187E0C80ED11CE12CF12CB8019D
:100300000E2C02C0759567950A94E2F76170F601AC
:1003100081916F010E94D100FFEFEF1AFF0A88E080
:10032000E816F10461F7CE01DF91CF911F910F9193
:10033000FF90EF90DF90CF900C941D01B80184E006
:10034000759567958A95E1F7CE010E9433016F2D6F
:10035000CE01DF91CF911F910F91FF90EF90DF9031
:10036000CF900C943301EF92FF920F931F93CF9392
:10037000DF93EC01623018F08F8588608F876B8B7C
:100380001C8A80E48D8B80E18E8B80E58F8B8C8145
:100390000E9487008D818F3F11F00E9487008E811F
:1003A0000E9487007E0187E0E80EF11C00E010E06B
:1003B0008F8584FD03C084E090E002C088E090E077
:1003C0000817190744F4F70181917F010E94870003
:1003D0000F5F1F4FEDCF8BE39DE00197F1F760E0DA
:1003E0008C810E94D10060E08E810E94D1008D81BD
:1003F0008F3F19F060E00E94D1006F8564FD1DC041
:1004000063E0CE010E9433010BE416E4C8010197BA
:10041000F1F763E0CE010E943301C8010197F1F7C3
:1004200063E0CE010E94330183E592E00197F1F78A
:1004300062E0CE010E94330119C0606240E0CE014B
:100440000E9460018BE496E40197F1F76F8560628A
:1004500040E0CE010E94600183E592E00197F1F750
:100460006F85606240E0CE010E9460016F8560622E
:1004700040E0CE010E94600184E0888B40E06CE0A7
:10048000CE010E94600140E061E0CE010E94600167
:100490008BE39FE10197F1F782E0898B40E066E012
:1004A000CE01DF91CF911F910F91FF90EF900C94AF
:1004B000600141E00E94600181E090E008950895AC
:1004C00080E090E008950E942B031F920F920FB6D8
:1004D0000F9211242F933F938F939F93AF93BF93CA
:1004E00080911F0190912001A0912101B0912201E2
:1004F00030911E0123E0230F2D3720F40196A11D1A
:10050000B11D05C026E8230F0296A11DB11D209341
:100510001E0180931F0190932001A0932101B093AD
:10052000220180911A0190911B01A0911C01B091B0
:100530001D010196A11DB11D80931A0190931B010D
:10054000A0931C01B0931D01BF91AF919F918F911A
:100550003F912F910F900FBE0F901F901895789498
:1005600084B5826084BD84B5816084BD85B58260B8
:1005700085BD85B5816085BD80916E008160809369
:100580006E001092810080918100826080938100D2
:1005900080918100816080938100809180008160E2
:1005A000809380008091B10084608093B10080913D
:1005B000B00081608093B00080917A008460809365
:1005C0007A0080917A00826080937A0080917A002C
:1005D000816080937A0080917A00806880937A00AD
:1005E0001092C10062E083E291E00E94B3014CE00E
:1005F00050E06CE071E083E291E00E94A600C0E070
:10060000D0E02097F1F30E940000FBCFE3E2F1E09D
:100610001382128284E091E0918380838CE0848352
:100620008FEF85838BE0868385E0878384E08087F6
:1006300083E0818782E0828713861486158616867A
:10064000178661E0CF010C94B301EE0FFF1F0590F8
:10065000F491E02D099481E090E0F8940C9430033B
:04066000F894FFCF3C
:10066400000000005902A60060025F0248656C6C3D
:0A0674006F20576F726C64210000C4
:00000001FF
