:100000000C945D000C9485000C9485000C94850084
:100010000C9485000C9485000C9485000C9485004C
:100020000C9485000C9485000C9485000C9485003C
:100030000C9485000C9485000C9485000C9485002C
:100040000C94D7020C9485000C9485000C948500C8
:100050000C9485000C9485000C9485000C9485000C
:100060000C9485000C94850000000008000201003B
:100070000003040700000000000000000000000072
:10008000250028002B0000000000240027002A0083
:10009000040404040404040402020202020203032E
:1000A0000303030301020408102040800102040836
:1000B0001020010204081020DA0311241FBECFEF24
:1000C000D8E0DEBFCDBF11E0A0E0B1E0E0E5F8E0B0
:1000D00002C005900D92AC30B107D9F721E0ACE039
:1000E000B1E001C01D92AF32B207E1F710E0CDE5FB
:1000F000D0E004C02197FE010E941B04CC35D1073B
:10010000C9F70E9421030C9426040C94000090E08F
:10011000FC01EC55FF4F2491FC01E057FF4F849107
:10012000882399F090E0880F991FFC01EA57FF4F50
:10013000A591B491FC01E458FF4F859194918FB73C
:10014000F894EC91E22BEC938FBF0895CF92DF925D
:10015000EF92FF920F931F93CF93DF936C017A017D
:100160008B01C0E0D0E0CE15DF0589F0D8016D919C
:100170008D01D601ED91FC910190F081E02DC60139
:100180000995892B11F47E0102C02196ECCFC7019D
:10019000DF91CF911F910F91FF90EF90DF90CF9063
:1001A000089590E0FC01E859FF4F3491FC01EC55B3
:1001B000FF4F2491FC01E057FF4FE491EE2309F437
:1001C0003BC0332339F1333091F038F43130A9F0AA
:1001D000323001F584B58F7D12C0373091F0383060
:1001E000A1F03430B9F4809180008F7D03C08091FC
:1001F00080008F77809380000DC084B58F7784BD99
:1002000009C08091B0008F7703C08091B0008F7DCE
:100210008093B000F0E0EE0FFF1FE458FF4FA59170
:10022000B4918FB7F894EC91611103C020952E23FF
:1002300001C02E2B2C938FBF08953FB7F894809167
:10024000110190911201A0911301B091140126B5F2
:10025000A89B05C02F3F19F00196A11DB11D3FBFFE
:10026000BA2FA92F982F8827820F911DA11DB11D8C
:10027000BC01CD0142E0660F771F881F991F4A9588
:10028000D1F70895CF93DF93EC0160E08E810E9457
:10029000D10061E08E810E94D10060E08E810E94D9
:1002A000D1008BE891E00197F1F7DF91CF910895AC
:1002B000CF92DF92EF92FF920F931F93CF93DF9332
:1002C0007C016C0187E0C80ED11CC0E0D0E0062F95
:1002D00010E0B8010C2E02C0759567950A94E2F7FC
:1002E0006170F60181916F010E94D1002196C430A6
:1002F000D10579F7C701DF91CF911F910F91FF9041
:10030000EF90DF90CF900C944201CF92DF92EF926A
:10031000FF920F931F93CF93DF93EC01F62E642F80
:100320008C810E94D1008D818F3F19F060E00E9486
:10033000D1008F850F2D10E084FF25C06E0187E06E
:10034000C80ED11CE12CF12CB8010E2C02C0759501
:1003500067950A94E2F76170F60181916F010E943E
:10036000D100FFEFEF1AFF0A88E0E816F10461F709
:10037000CE01DF91CF911F910F91FF90EF90DF9011
:10038000CF900C944201B80184E0759567958A95E9
:10039000E1F7CE010E9458016F2DCE01DF91CF9180
:1003A0001F910F91FF90EF90DF90CF900C94580128
:1003B00041E00E94850181E090E0089540E00C94C6
:1003C0008501EF92FF920F931F93CF93DF93EC0180
:1003D000623018F08F8588608F876B8B1C8A80E471
:1003E0008D8B80E18E8B80E58F8B8C810E948700C6
:1003F0008D818F3F11F00E9487008E810E948700BF
:100400007E0187E0E80EF11C00E010E08F8584FD9E
:1004100003C084E090E002C088E090E0081719076C
:1004200044F4F70181917F010E9487000F5F1F4F05
:10043000EDCF8BE39DE00197F1F760E08C810E94A6
:10044000D10060E08E810E94D1008D818F3F19F034
:1004500060E00E94D1006F8564FD1DC063E0CE01A5
:100460000E9458010BE416E4C8010197F1F763E01C
:10047000CE010E945801C8010197F1F763E0CE0157
:100480000E94580183E592E00197F1F762E0CE0106
:100490000E94580116C06062CE010E94DE018BE40A
:1004A00096E40197F1F76F856062CE010E94DE014C
:1004B00083E592E00197F1F76F856062CE010E94BB
:1004C000DE016F856062CE010E94DE0184E0888BD0
:1004D0006CE0CE010E94DE0161E0CE010E94DE01EF
:1004E0008BE39FE10197F1F782E0898B66E0CE0113
:1004F000DF91CF911F910F91FF90EF900C94DE014F
:10050000089580E090E008958F929F92AF92BF92FD
:100510000F931F93CF93DF93CDB7DEB7A1970FB69D
:10052000F894DEBF0FBECDBF19A2423008F44AE0F6
:100530008E010F5D1F4F842E912CA12CB12CA50193
:1005400094010E94F903E62FB901CA010150110973
:10055000EA3014F4E05D01C0E95CD801EC93232B90
:10056000242B252B61F70115110571F0F80101907D
:100570000020E9F73197AF01401B510BB80187E12B
:1005800091E00E94A60002C080E090E0A1960FB624
:10059000F894DEBF0FBECDBFDF91CF911F910F91B9
:1005A000BF90AF909F908F9008950E9421041F925A
:1005B0000F920FB60F9211242F933F938F939F9317
:1005C000AF93BF9380910D0190910E01A0910F0107
:1005D000B091100130910C0123E0230F2D3720F44E
:1005E0000196A11DB11D05C026E8230F0296A11D8D
:1005F000B11D20930C0180930D0190930E01A093E7
:100600000F01B09310018091110190911201A091FE
:100610001301B09114010196A11DB11D8093110128
:1006200090931201A0931301B0931401BF91AF9165
:100630009F918F913F912F910F900FBE0F901F9020
:100640001895789484B5826084BD84B5816084BD3A
:1006500085B5826085BD85B5816085BD80916E0060
:10066000816080936E001092810080918100826091
:1006700080938100809181008160809381008091CE
:1006800080008160809380008091B10084608093BD
:10069000B1008091B00081608093B00080917A00B9
:1006A000846080937A0080917A00826080937A00DF
:1006B00080917A00816080937A0080917A008068CE
:1006C00080937A001092C10062E087E191E00E947D
:1006D000E101C0E0D0E0E1E080912A018111E0E099
:1006E000E195F0E0E95EFE4F6489606887E191E0A2
:1006F0000E94DE01C0901501D0901601C60101963E
:1007000090931601809315010D2C000CEE08FF0844
:10071000F7FE14C0E0911701F09118010190F081EB
:10072000E02D6DE287E191E0099566277727CB01FF
:100730006C197D098E099F094AE003C04AE0C70190
:10074000B6010E9484020E941D014B015C0184EFEE
:10075000C82EDD24D394E12CF12C0E941D01DC0174
:10076000CB0188199909AA09BB09883E9340A105C4
:10077000B10558F021E0C21AD108E108F10888EE6D
:10078000880E83E0981EA11CB11CC114D104E104A1
:10079000F10419F780911501909116010A9724F040
:1007A0001092160110921501209709F494CF0E941F
:1007B000000091CFE7E1F1E01382128284E091E042
:1007C000918380838CE084838FEF85838BE08683A5
:1007D00085E0878384E0808783E0818782E0828769
:1007E0001386148615861686178661E0CF010C9451
:1007F000E101A1E21A2EAA1BBB1BFD010DC0AA1F1D
:10080000BB1FEE1FFF1FA217B307E407F50720F079
:10081000A21BB30BE40BF50B661F771F881F991FF4
:100820001A9469F760957095809590959B01AC013D
:10083000BD01CF010895EE0FFF1F0590F491E02D4B
:10084000099481E090E0F8940C942604F894FFCF8A
:0C08500000000000D801A6008102800218
:00000001FF
