:100000000C9452000C946F000C946F000C946F00D1
:100010000C946F000C946F000C946F000C946F00A4
:100020000C946F000C946F000C946F000C946F0094
:100030000C946F000C946F000C946F000C946F0084
:100040000C94B0000C946F000C946F000C946F0033
:100050000C946F000C946F000C946F000C946F0064
:100060000C946F000C946F00000000002500280025
:100070002B0000000000240027002A0004040404D0
:100080000404040402020202020203030303030342
:10009000010204081020408001020408102001021F
:1000A0000408102011241FBECFEFD8E0DEBFCDBF63
:1000B00011E0A0E0B1E0EEE9F4E002C005900D929D
:1000C000AA31B107D9F721E0AAE1B1E001C01D9240
:1000D000A732B207E1F70E94FA000C944D020C948B
:1000E00000003FB7F89480911B0190911C01A091F2
:1000F0001D01B0911E0126B5A89B05C02F3F19F028
:100100000196A11DB11D3FBFBA2FA92F982F882797
:10011000820F911DA11DB11DBC01CD0142E0660FF2
:10012000771F881F991F4A95D1F70895CF92DF92C4
:10013000EF92FF920E9471006B017C010E9471009E
:10014000DC01CB018C199D09AE09BF09883E9340A3
:10015000A105B10598F3FF90EF90DF90CF9008953F
:100160001F920F920FB60F9211242F933F938F93EC
:100170009F93AF93BF9380911F0190912001A09115
:100180002101B091220130911A0123E0230F2D3774
:1001900020F40196A11DB11D05C026E8230F02968B
:1001A000A11DB11D20931A0180931F01909320017E
:1001B000A0932101B093220180911B0190911C0119
:1001C000A0911D01B0911E010196A11DB11D80934A
:1001D0001B0190931C01A0931D01B0931E01BF91C0
:1001E000AF919F918F913F912F910F900FBE0F90E4
:1001F0001F901895789484B5826084BD84B5816021
:1002000084BD85B5826085BD85B5816085BD8091E1
:100210006E00816080936E00109281008091810059
:100220008260809381008091810081608093810051
:10023000809180008160809380008091B100846013
:100240008093B1008091B00081608093B000809174
:100250007A00846080937A0080917A008260809333
:100260007A0080917A00816080937A0080917A0090
:10027000806880937A001092C10020E030E0F9019C
:10028000E057FF4F4491F901E458FF4F84918823D0
:1002900099F090E0880F991FFC01EE58FF4FA5914F
:1002A000B491FC01E859FF4F859194918FB7F89470
:1002B000EC91E42BEC938FBF2F5F3F4F2E30310535
:1002C000F1F62FB7F89480911F0190912001A09131
:1002D0002101B09122012FBF80932301909324012B
:1002E000A0932501B09326014FEDD42E0AE010E033
:1002F0005FEEC52E67EFB62E7BEFA72EE0E0EE2E69
:10030000E0E0FE2E2FB7F89480911F01909120011C
:10031000A0912101B09122012FBF40912301509162
:1003200024016091250170912601841B950BA60B79
:10033000B70B893E9340A105B105E0F02FB7F894C3
:1003400080911F0190912001A0912101B091220183
:100350002FBF8093230190932401A0932501B09394
:100360002601809104019091050101969093050169
:10037000809304018091040190910501CC9734F1A0
:1003800010920501109204018091020190910301E5
:1003900001968C3391052CF4909303018093020114
:1003A00015C01092030110920201809100019091FA
:1003B00001010196883191052CF4909301018093FD
:1003C000000104C01092010110920001C0910201CD
:1003D000D09103018091000190910101D5B8B8013D
:1003E0000E9425024C01660F771FFB01EA5FFE4F5A
:1003F00080818BB90E949600C5B8F401EE0FFF1FF3
:10040000EA5FFE4F80818BB90E949600B5B8CE019D
:10041000B8010E942502EC01660F771FFB01EA5F1D
:10042000FE4F80818BB90E949600A5B8CC0FDD1FCE
:10043000CA5FDE4F88818BB90E949600E114F104F7
:1004400009F460CF0E9400005DCF97FB072E16F4E1
:10045000009407D077FD09D00E94390207FC05D02F
:100460003EF4909581959F4F0895709561957F4FCB
:100470000895AA1BBB1B51E107C0AA1FBB1FA617EB
:10048000B70710F0A61BB70B881F991F5A95A9F73D
:0E04900080959095BC01CD010895F894FFCFA2
:10049E0017003B0037003F0006005B004F00660070
:0A04AE006D007D0007007F006F0065
:00000001FF
