:100000000C9462000C948A000C948A000C948A0070
:100010000C948A000C948A000C948A000C948A0038
:100020000C948A000C948A000C948A000C948A0028
:100030000C948A000C948A000C948A000C948A0018
:100040000C9488040C948A000C9456040C9430048C
:100050000C948A000C948A000C948A000C948A00F8
:100060000C948A000C948A000000000024002700F1
:100070002A0000000000250028002B0000000000DE
:1000800023002600290004040404040404040202DA
:100090000202020203030303030301020408102007
:1000A0004080010204081020010204081020000012
:1000B0000008000201000003040700000000000027
:1000C0000000D20411241FBECFEFD8E0DEBFCDBFA9
:1000D00011E0A0E0B1E0ECEDFEE002C005900D9271
:1000E000AE34B107D9F722E0AEE4B1E001C01D9211
:1000F000AB37B207E1F710E0C2E6D0E004C02197C9
:10010000FE010E946107C136D107C9F70E948E0522
:100110000C946C070C94000096E0899FD001112488
:10012000A45FBD4F90967C936E935F9791E09196FC
:100130009C93919790917802E0917902F0917A02E4
:10014000992339F0309751F0811108C0809128022D
:1001500004C0309719F05C968C9109940895CF9261
:10016000DF92EF92FF920F931F93CF93DF936C0177
:100170007A018B01C0E0D0E0CE15DF0589F0D8010F
:100180006D918D01D601ED91FC910190F081E02DF2
:10019000C6010995892B11F47E0102C02196ECCF8E
:1001A000C701DF91CF911F910F91FF90EF90DF90EA
:1001B000CF900895FC01538D448D252F30E0842F7E
:1001C00090E0821B930B541710F0CF96089501977F
:1001D0000895FC01918D828D981761F0828DDF0169
:1001E000A80FB11D5D968C91928D9F5F9F73928F2A
:1001F00090E008958FEF9FEF0895FC01918D828D1F
:10020000981731F0828DE80FF11D858D90E00895EB
:100210008FEF9FEF0895FC01918D228D892F90E043
:10022000805C9F4F821B91098F739927089587E502
:1002300091E00E940B0121E0892B09F420E0822F3C
:100240000895FC01848DDF01A80FB11DA35ABF4F93
:100250002C91848D90E001968F739927848FA689C5
:10026000B7892C93A089B1898C9180648C93938DEC
:10027000848D981306C00288F389E02D80818F7DDC
:1002800080830895EF92FF920F931F93CF93DF9394
:10029000EC0181E0888F9B8D8C8D981305C0E889D7
:1002A000F989808185FD24C0F62E0B8D10E00F5F4B
:1002B0001F4F0F731127E02E8C8DE8120CC00FB664
:1002C00007FCFACFE889F989808185FFF5CFCE0157
:1002D0000E942101F1CF8B8DFE01E80FF11DE35A41
:1002E000FF4FF0820B8FEA89FB898081806207C013
:1002F000EE89FF896083E889F98980818064808341
:1003000081E090E0DF91CF911F910F91FF90EF90EE
:100310000895CF93DF93EC01888D8823C9F0EA8993
:10032000FB89808185FD05C0A889B9898C9186FDEE
:100330000FC00FB607FCF5CF808185FFF2CFA889EB
:10034000B9898C9185FFEDCFCE010E942101E7CFC5
:10035000DF91CF91089580E090E0892B29F00E94F1
:10036000170181110C9400000895833081F028F466
:10037000813099F08230A1F008958730A9F088305B
:10038000B9F08430D1F4809180008F7D03C08091DA
:1003900080008F7780938000089584B58F7702C0A6
:1003A00084B58F7D84BD08958091B0008F7703C0A0
:1003B0008091B0008F7D8093B0000895CF93DF933C
:1003C000282F30E0F901E255FF4F8491F901E656FC
:1003D000FF4FD491F901EA57FF4FC491CC2391F01C
:1003E00081110E94B501EC2FF0E0EE0FFF1FE458E1
:1003F000FF4FA591B491EC91ED2381E090E021F4C1
:1004000080E002C080E090E0DF91CF910895862FD8
:100410000C94DE011F93CF93DF93282F30E0F90176
:10042000E255FF4F8491F901E656FF4FD491F9014F
:10043000EA57FF4FC491CC23C9F0162F81110E94B7
:10044000B501EC2FF0E0EE0FFF1FEE58FF4FA59126
:10045000B4918FB7F894111105C09C91ED2FE095E0
:10046000E92302C0EC91ED2BEC938FBFDF91CF918C
:100470001F910895862F642F0C940A02CF93DF9367
:1004800090E0FC01E656FF4F2491FC01EA57FF4F34
:100490008491882361F190E0880F991FFC01E8594D
:1004A000FF4FC591D491FC01EE58FF4FA591B49137
:1004B000611109C09FB7F8948881209582238883B1
:1004C000EC912E230BC0623061F49FB7F894388111
:1004D000822F809583238883EC912E2B2C939FBFB2
:1004E00006C08FB7F894E8812E2B28838FBFDF9149
:1004F000CF910895862F642F0C943E022FB7F89465
:100500006091530170915401809155019091560171
:100510002FBF08950F931F93CF93DF93C82FD62F2C
:1005200086E0C89FF0011124E45FFD4F11A2878D82
:1005300090A181309105F1F01CF4892B49F043C062
:1005400082309105A9F10397F1F560E070E034C0C5
:100550006623C9F161E070E08C2F0E948C000E943C
:100560007E026093640270936502809366029093AA
:10057000670229C00E947E02009164021091650208
:100580002091660230916702AB01BC01401B510B08
:10059000620B730B8091760290917702A0E0B0E03D
:1005A00084179507A607B70718F462E070E004C047
:1005B000D11109C063E070E08C2FDF91CF911F91C2
:1005C0000F910C948C00DF91CF911F910F910895A2
:1005D000CF93DF93EC0160E08E810E940A0261E01C
:1005E0008E810E940A0260E08E810E940A028BE8DE
:1005F00091E00197F1F7DF91CF910895CF92DF92CB
:10060000EF92FF920F931F93CF93DF937C016C01C6
:1006100087E0C80ED11CC0E0D0E0062F10E0B80182
:100620000C2E02C0759567950A94E2F76170F60189
:1006300081916F010E940A022196C430D10579F799
:10064000C701DF91CF911F910F91FF90EF90DF9045
:10065000CF900C94E802CF92DF92EF92FF920F932B
:100660001F93CF93DF93EC01F62E642F8C810E94B1
:100670000A028D818F3F19F060E00E940A028F8587
:100680000F2D10E084FF25C06E0187E0C80ED11C3D
:10069000E12CF12CB8010E2C02C0759567950A94D7
:1006A000E2F76170F60181916F010E940A02FFEF8B
:1006B000EF1AFF0A88E0E816F10461F7CE01DF9136
:1006C000CF911F910F91FF90EF90DF90CF900C94FE
:1006D000E802B80184E0759567958A95E1F7CE0147
:1006E0000E94FE026F2DCE01DF91CF911F910F91DD
:1006F000FF90EF90DF90CF900C94FE0241E00E94BB
:100700002B0381E090E0089540E00C942B03EF92DE
:10071000FF920F931F93CF93DF93EC01623018F099
:100720008F8588608F876B8B1C8A80E48D8B80E13E
:100730008E8B80E58F8B61E08C810E943E028D81E3
:100740008F3F19F061E00E943E0261E08E810E94BD
:100750003E027E0187E0E80EF11C00E010E08F858C
:1007600084FD03C084E090E002C088E090E00817B8
:1007700019074CF461E0F70181917F010E943E026C
:100780000F5F1F4FECCF8BE39DE00197F1F760E027
:100790008C810E940A0260E08E810E940A028D8193
:1007A0008F3F19F060E00E940A026F8564FD1DC052
:1007B00063E0CE010E94FE020BE416E4C80101973B
:1007C000F1F763E0CE010E94FE02C8010197F1F744
:1007D00063E0CE010E94FE0283E592E00197F1F70B
:1007E00062E0CE010E94FE0216C06062CE010E944D
:1007F00084038BE496E40197F1F76F856062CE0184
:100800000E94840383E592E00197F1F76F856062AF
:10081000CE010E9484036F856062CE010E94840332
:1008200084E0888B6CE0CE010E94840361E0CE01FD
:100830000E9484038BE39FE10197F1F782E0898BAB
:1008400066E0CE01DF91CF911F910F91FF90EF9065
:100850000C948403089580E090E008950E94670757
:100860001F920F920FB60F9211242F933F934F9325
:100870005F936F937F938F939F93AF93BF93EF9308
:10088000FF9387E591E00E942101FF91EF91BF91D5
:10089000AF919F918F917F916F915F914F913F9118
:1008A0002F910F900FBE0F901F9018951F920F92CF
:1008B0000FB60F9211242F938F939F93EF93FF9373
:1008C000E0916701F09168018081E0916D01F09104
:1008D0006E0182FD12C09081809170018F5F8F73D5
:1008E00020917101821751F0E0917001F0E0E95A16
:1008F000FE4F958F8093700101C08081FF91EF9131
:100900009F918F912F910F900FBE0F901F90189570
:100910001F920F920FB60F9211242F933F938F9334
:100920009F93AF93BF938091530190915401A091F5
:100930005501B09156013091520123E0230F2D371C
:1009400020F40196A11DB11D05C026E8230F0296D3
:10095000A11DB11D20935201809353019093540126
:10096000A0935501B093560180914E0190914F0193
:10097000A0915001B09151010196A11DB11D80932C
:100980004E0190934F01A0935001B0935101BF913C
:10099000AF919F918F913F912F910F900FBE0F902C
:1009A0001F90189510925A011092590188EE93E009
:1009B000A0E0B0E080935B0190935C01A0935D01A7
:1009C000B0935E018CE191E09093580180935701C0
:1009D00085EC90E0909364018093630184EC90E057
:1009E000909366018093650180EC90E0909368019C
:1009F0008093670181EC90E090936A018093690194
:100A000082EC90E090936C0180936B0186EC90E017
:100A100090936E0180936D0110927001109271019C
:100A2000109272011092730110920E021092120233
:100A300010921102109213028AE391E090930D023A
:100A400080930C0280E090E0FC01E45FFD4F148E87
:100A500010A2178E11A206968C339105A9F784E097
:100A600091E090936F0280936E0280E091E090930A
:100A700071028093700284E080937202809373020B
:100A800088E091E090936D0280936C028AE090E0A0
:100A9000909375028093740284EF91E090937702B3
:100AA0008093760210927A02109279021092680274
:100AB0001092690210926A0210926B0210927802F0
:100AC0001092F7011092F6018EE291E09093F501F9
:100AD0008093F4018EE08093F8018FEF8093F90109
:100AE0008FE08093FA0180E18093FB0181E18093A4
:100AF000FC0182E18093FD0183E18093FE0110926D
:100B0000FF01109200021092010210920202109254
:100B1000030261E084EF91E00C948703789484B53C
:100B2000826084BD84B5816084BD85B5826085BDE9
:100B300085B5816085BD80916E00816080936E0077
:100B40001092810080918100826080938100809169
:100B5000810081608093810080918000816080931A
:100B600080008091B10084608093B1008091B000DA
:100B700081608093B00080917A00846080937A00D5
:100B800080917A00826080937A0080917A008160FF
:100B900080937A0080917A00806880937A00109226
:100BA000C100E0916701F091680182E08083E091EB
:100BB0006301F09164011082E0916501F09166019A
:100BC0008FEC808310926F01E0916B01F0916C01CA
:100BD00086E08083E0916901F0916A018081806103
:100BE0008083E0916901F0916A018081886080834F
:100BF000E0916901F0916A01808180688083E091D1
:100C00006901F0916A0180818F7D808362E084EFC9
:100C100091E00E9487034CE050E060E471E084EFD3
:100C200091E00E94AF00412C512C32014394CC241E
:100C3000CA94DC2C81E0809378020E947E020091AD
:100C400068021091690220916A0230916B02AB0137
:100C5000BC01401B510B620B730B8091740290918D
:100C60007502A0E0B0E084179507A607B70708F063
:100C700006C1C0E080917202C81760F4E0916E0274
:100C8000F0916F02EC0FF11D62E080810E943E0244
:100C9000CF5FF0CF912C80917302981608F05FC05F
:100CA000092D10E0E0917002F0917102E00FF11F48
:100CB00061E080810E943E02E0917002F091710239
:100CC000E00FF11F60E080810E940A02D301C2019F
:100CD000092C04C0880F991FAA1FBB1F0A94D2F7C2
:100CE0005C017C01E094F094812C80917202881662
:100CF000F8F4C82DD0E0E0916E02F0916F02EC0F95
:100D0000FD1F80810E94DE012496CC0FDD1FC45F91
:100D1000DD4F892B29F4888199818A299B2904C078
:100D2000888199818E219F21998388838394DDCF47
:100D3000E0917002F0917102E00FF11F61E080819B
:100D40000E940A028091700290917102FC01E00FF2
:100D5000F11F60E080810E943E0293949CCFE8E204
:100D6000F2E083819481892B21F41082D282C182A6
:100D70001582369682E0E436F80799F710E006E02F
:100D800080917202181708F052C0F12CC12FD0E0E8
:100D9000CC0FDD1FCC5EDD4F20917302F21608F000
:100DA00044C0688179810F2C02C0769567950A94BA
:100DB000E2F761707727129F900111242F0D311DEA
:100DC000E0916C02F0916D02E20FF31FA081ECE064
:100DD000F2E080E0458D568D4217530711F46170A3
:100DE0001AC08F5F36968A30A9F7672BE1F0E8E2E8
:100DF000F2E080E090E04081411110C0089FF001D6
:100E0000099FF00D1124E45FFD4FA48F368F258FCD
:100E100010A2178E61E00E948A0205C001963696E4
:100E20008A30910541F7F394B7CF1F5FA9CF80E0D7
:100E300090E0C0E0FC01E45FFD4F21A12111C1E081
:100E400006968C339105B1F70E947E02609368028A
:100E50007093690280936A0290936B02CC2379F0BD
:100E600080912D02882359F080912B0290912C02C1
:100E7000019729F4C0912802C11104C01FC010922B
:100E800078021CC0E0910702E23010F4E15001C08A
:100E9000E1E0F0E0EC50FE4F8489682F606884EF59
:100EA00091E00E948403E091F401F091F50101903A
:100EB000F081E02D6C2F84EF91E009950E94AB0149
:100EC000B9CEEE0FFF1F0590F491E02D099481E05B
:0C0ED00090E0F8940C946C07F894FFCFAD
:100EDC00070605040B0A09083738392F3435362A2A
:100EEC003132332D43303D2B000000004201AF0066
:100EFC00DA0089010B01E900FD00000000007E030F
:100F0C00AF002B042A04000000007A023A02070208
:0E0F1C004B657920507265737365643A00006E
:00000001FF
