:100000000C9462000C948A000C948A000C948A0070
:100010000C948A000C948A000C948A000C948A0038
:100020000C948A000C948A000C948A000C948A0028
:100030000C948A000C948A000C948A000C948A0018
:100040000C94E2010C948A000C948A000C948A00AF
:100050000C948A000C948A000C948A000C948A00F8
:100060000C948A000C948A000000000024002700F1
:100070002A0000000000250028002B0000000000DE
:1000800023002600290004040404040404040202DA
:100090000202020203030303030301020408102007
:1000A0004080010204081020010204081020000012
:1000B0000008000201000003040700000000000027
:1000C0000000BA0311241FBECFEFD8E0DEBFCDBFC2
:1000D00011E0A0E0B1E0EEE1F8E002C005900D9281
:1000E000A633B107D9F721E0A6E3B1E001C01D9224
:1000F000AE3AB207E1F710E0C2E6D0E004C02197C3
:10010000FE010E940704C136D107C9F70E942C02E4
:100110000C940D040C94000096E0899FD0011124EA
:10012000A15CBE4F90967C936E935F9791E0919601
:100130009C9391979091AB01E091AC01F091AD014E
:10014000992339F0309751F0811108C080915B01FB
:1001500004C0309719F05C968C910994089583300F
:1001600081F028F4813099F08230A1F00895873031
:10017000A9F08830B9F08430D1F4809180008F7D6F
:1001800003C0809180008F7780938000089584B5AC
:100190008F7702C084B58F7D84BD08958091B000B3
:1001A0008F7703C08091B0008F7D8093B000089559
:1001B000CF93DF93282F30E0F901E255FF4F849170
:1001C000F901E656FF4FD491F901EA57FF4FC49168
:1001D000CC2391F081110E94AF00EC2FF0E0EE0FE4
:1001E000FF1FE458FF4FA591B491EC91ED2381E0FE
:1001F00090E021F480E002C080E090E0DF91CF91B8
:100200000895862F0C94D8001F93CF93DF93282F47
:1002100030E0F901E255FF4F8491F901E656FF4FB6
:10022000D491F901EA57FF4FC491CC23C9F0162F9E
:1002300081110E94AF00EC2FF0E0EE0FFF1FEE588F
:10024000FF4FA591B4918FB7F894111105C09C91FF
:10025000ED2FE095E92302C0EC91ED2BEC938FBFDD
:10026000DF91CF911F910895862F642F0C94040184
:10027000CF93DF9390E0FC01E656FF4F2491FC0101
:10028000EA57FF4F8491882361F190E0880F991F0E
:10029000FC01E859FF4FC591D491FC01EE58FF4F86
:1002A000A591B491611109C09FB7F89488812095F8
:1002B00082238883EC912E230BC0623061F49FB7B8
:1002C000F8943881822F809583238883EC912E2B9C
:1002D0002C939FBF06C08FB7F894E8812E2B2883FC
:1002E0008FBFDF91CF910895862F642F0C94380132
:1002F0002FB7F89460913B0170913C0180913D01D2
:1003000090913E012FBF08950F931F93CF93DF93DA
:10031000C82FD62F86E0C89FF0011124E15CFE4F64
:1003200011A2878D90A181309105F1F01CF4892BE9
:1003300049F043C082309105A9F10397F1F560E0DF
:1003400070E034C06623C9F161E070E08C2F0E9438
:100350008C000E94780160939701709398018093BC
:10036000990190939A0129C00E9478010091970108
:10037000109198012091990130919A01AB01BC0133
:10038000401B510B620B730B8091A9019091AA0144
:10039000A0E0B0E084179507A607B70718F462E05D
:1003A00070E004C0D11109C063E070E08C2FDF91D0
:1003B000CF911F910F910C948C00DF91CF911F91E1
:1003C0000F9108951F920F920FB60F9211242F9341
:1003D0003F938F939F93AF93BF9380913B019091F5
:1003E0003C01A0913D01B0913E0130913A0123E0E2
:1003F000230F2D3720F40196A11DB11D05C026E85D
:10040000230F0296A11DB11D20933A0180933B0159
:1004100090933C01A0933D01B0933E018091360141
:1004200090913701A0913801B09139010196A11D39
:10043000B11D8093360190933701A0933801B0939A
:100440003901BF91AF919F918F913F912F910F9063
:100450000FBE0F901F901895789484B5826084BD6C
:1004600084B5816084BD85B5826085BD85B58160B8
:1004700085BD80916E00816080936E001092810036
:1004800080918100826080938100809181008160F1
:1004900080938100809180008160809380008091B2
:1004A000B10084608093B1008091B000816080933E
:1004B000B00080917A00846080937A0080917A0005
:1004C000826080937A0080917A00816080937A00C4
:1004D00080917A00806880937A001092C100C0E019
:1004E00061E08C2F0E943801CF5FC730C9F7412CE3
:1004F000512C32014394CC24CA94DC2C81E08093AB
:10050000AB010E94780100919B0110919C01209108
:100510009D0130919E01AB01BC01401B510B620B50
:10052000730B8091A7019091A801A0E0B0E084171F
:100530009507A607B70708F004C1C0E08091A501A0
:10054000C81760F4E091A101F091A201EC0FF11D38
:1005500062E080810E943801CF5FF0CF912C8091C2
:10056000A601981608F05FC0092D10E0E091A301E4
:10057000F091A401E00FF11F61E080810E94380139
:10058000E091A301F091A401E00FF11F60E08081F0
:100590000E940401D301C201092C04C0880F991FD5
:1005A000AA1FBB1F0A94D2F75C017C01E094F0946F
:1005B000812C8091A5018816F8F4C82DD0E0E09137
:1005C000A101F091A201EC0FFD1F80810E94D800D3
:1005D0002496CC0FDD1FC15CDE4F892B29F4888166
:1005E00099818A299B2904C0888199818E219F2124
:1005F000998388838394DDCFE091A301F091A401D6
:10060000E00FF11F61E080810E9404018091A3014D
:100610009091A401FC01E00FF11F60E080810E9435
:10062000380193949CCFEBE5F1E083819481892B91
:1006300021F41082D282C1821582369681E0E73998
:10064000F80799F710E006E08091A501181708F067
:1006500052C0F12CC12FD0E0CC0FDD1FC95BDE4FA3
:100660002091A601F21608F044C0688179810F2C10
:1006700002C0769567950A94E2F761707727129F1A
:10068000900111242F0D311DE0919F01F091A001E7
:10069000E20FF31FA081EFE3F1E080E0458D568D7E
:1006A0004217530711F461701AC08F5F36968A3073
:1006B000A9F7672BE1F0EBE5F1E080E090E0408105
:1006C000411110C0089FF001099FF00D1124E15C59
:1006D000FE4FA48F368F258F10A2178E61E00E94E7
:1006E000840105C0019636968A30910541F7F3944E
:1006F000B7CF1F5FA9CF80E090E0C0E0FC01E15CD4
:10070000FE4F21A12111C1E006968C339105B1F76E
:100710000E94780160939B0170939C0180939D01DE
:1007200090939E01CC2369F080916001882349F069
:1007300080915E0190915F01019719F480915B01B6
:1007400003C01092AB0180E0082E000C990BC097FB
:100750008A30910538F4880F991FFC01EE5DFE4F39
:1007600080818BB980E090E0892B09F4C7CE0E948C
:100770000000C4CE10924101109245011092440134
:10078000109246018CE191E09093400180933F01EB
:1007900080E090E0FC01E15CFE4F148E10A2178E09
:1007A00011A206968C339105A9F784E091E090930D
:1007B000A2018093A10180E091E09093A401809335
:1007C000A30184E08093A5018093A60188E091E0D5
:1007D0009093A00180939F018AE090E09093A801FC
:1007E0008093A70184EF91E09093AA018093A901DF
:1007F0001092AD011092AC0110929B0110929C01DD
:1008000010929D0110929E011092AB010895EE0F7F
:0E081000FF1F0590F491E02D0994F894FFCF9E
:10081E000E0F10110B0A09083738392F3435362AC6
:10082E003132332D43303D2B000000007401340172
:10083E0001017E0030006D00790033005B005F0027
:06084E0070007F007B003A
:00000001FF
