:100000000C9452000C946F000C946F000C946F00D1
:100010000C946F000C946F000C946F000C946F00A4
:100020000C946F000C946F000C946F000C946F0094
:100030000C946F000C946F000C946F000C946F0084
:100040000C94B0000C946F000C946F000C946F0033
:100050000C946F000C946F000C946F000C946F0064
:100060000C946F000C946F00000000002500280025
:100070002B0000000000240027002A0004040404D0
:100080000404040402020202020203030303030342
:10009000010204081020408001020408102001021F
:1000A0000408102011241FBECFEFD8E0DEBFCDBF63
:1000B00011E0A0E0B1E0E6E6F7E002C005900D92A5
:1000C000A431B107D9F721E0A4E1B1E001C01D924C
:1000D000A132B207E1F70E94FA000C94B1030C942C
:1000E00000003FB7F8948091190190911A01A091F6
:1000F0001B01B0911C0126B5A89B05C02F3F19F02C
:100100000196A11DB11D3FBFBA2FA92F982F882797
:10011000820F911DA11DB11DBC01CD0142E0660FF2
:10012000771F881F991F4A95D1F70895CF92DF92C4
:10013000EF92FF920E9471006B017C010E9471009E
:10014000DC01CB018C199D09AE09BF09883E9340A3
:10015000A105B10598F3FF90EF90DF90CF9008953F
:100160001F920F920FB60F9211242F933F938F93EC
:100170009F93AF93BF938091150190911601A09129
:100180001701B09118013091140123E0230F2D378E
:1001900020F40196A11DB11D05C026E8230F02968B
:1001A000A11DB11D20931401809315019093160198
:1001B000A0931701B09318018091190190911A0131
:1001C000A0911B01B0911C010196A11DB11D80934E
:1001D000190190931A01A0931B01B0931C01BF91C8
:1001E000AF919F918F913F912F910F900FBE0F90E4
:1001F0001F901895789484B5826084BD84B5816021
:1002000084BD85B5826085BD85B5816085BD8091E1
:100210006E00816080936E00109281008091810059
:100220008260809381008091810081608093810051
:10023000809180008160809380008091B100846013
:100240008093B1008091B00081608093B000809174
:100250007A00846080937A0080917A008260809333
:100260007A0080917A00816080937A0080917A0090
:10027000806880937A001092C10020E030E0F9019C
:10028000E057FF4F4491F901E458FF4F84918823D0
:1002900099F090E0880F991FFC01EE58FF4FA5914F
:1002A000B491FC01E859FF4F859194918FB7F89470
:1002B000EC91E42BEC938FBF2F5F3F4F2C30310537
:1002C000F1F6EEE9F0E02491EAE8F0E08491882389
:1002D000C1F090E0880F991FFC01EE58FF4FC591C7
:1002E000D491FC01E859FF4FA591B4919FB7F894C0
:1002F0008881E22FE0958E2388838C91E823EC930C
:100300009FBF2EE0F22ECAE0D0E03DE0E32E47E0B2
:10031000D42E59E3C52E00E010E060E4B62EB09272
:100320007C0080917A00806480937A0080917A00CA
:1003300086FDFCCF609178008091790070E0782B89
:10034000072E000C880B990B0E94900220E030ECE5
:100350004FE754E40E94E60120E030E44CE955E424
:100360000E941C0360931D0170931E0180931F0166
:100370009093200120E030E040E251E40E94E60149
:100380000E945802F5B8CB01BE010E9489034C01BE
:10039000660F771FFB01E050FF4F80818BB90E94F1
:1003A0009600E5B8F401EE0FFF1FE050FF4F80818B
:1003B0008BB90E949600D5B8CBB80E949600011563
:1003C000110509F4ACCF0E940000A9CF0E94FA01E8
:1003D0000C94E2020E94DB0258F00E94D40240F02A
:1003E00029F45F3F29F00C94CB0251110C941603B1
:1003F0000C94D1020E94F30268F39923B1F35523C0
:1004000091F3951B550BBB27AA2762177307840727
:1004100038F09F5F5F4F220F331F441FAA1FA9F3BD
:1004200035D00E2E3AF0E0E832D091505040E695AB
:10043000001CCAF72BD0FE2F29D0660F771F881F0C
:10044000BB1F261737074807AB07B0E809F0BB0BFF
:10045000802DBF01FF2793585F4F3AF09E3F510513
:1004600078F00C94CB020C9416035F3FE4F3983EB3
:10047000D4F3869577956795B795F7959F5FC9F7FC
:10048000880F911D9695879597F90895E1E0660F7D
:10049000771F881FBB1F621773078407BA0720F0F6
:1004A000621B730B840BBA0BEE1F88F7E09508955F
:1004B0000E945F026894B1110C94160308950E9483
:1004C000FB0288F09F5798F0B92F9927B751B0F0E9
:1004D000E1F0660F771F881F991F1AF0BA95C9F7C8
:1004E00014C0B13091F00E941503B1E008950C944E
:1004F0001503672F782F8827B85F39F0B93FCCF301
:10050000869577956795B395D9F73EF49095809544
:10051000709561957F4F8F4F9F4F0895E89409C064
:1005200097FB3EF490958095709561957F4F8F4F26
:100530009F4F9923A9F0F92F96E9BB279395F6953C
:10054000879577956795B795F111F8CFFAF4BB0FBA
:1005500011F460FF1BC06F5F7F4F8F4F9F4F16C01E
:10056000882311F096E911C0772321F09EE8872FA8
:10057000762F05C0662371F096E8862F70E060E064
:100580002AF09A95660F771F881FDAF7880F9695DD
:10059000879597F9089597F99F6780E870E060E084
:1005A00008959FEF80EC089500240A94161617060C
:1005B00018060906089500240A9412161306140654
:1005C00005060895092E0394000C11F4882352F0B7
:1005D000BB0F40F4BF2B11F460FF04C06F5F7F4F6F
:1005E0008F4F9F4F089557FD9058440F551F59F056
:1005F0005F3F71F04795880F97FB991F61F09F3F10
:1006000079F087950895121613061406551FF2CF38
:100610004695F1DF08C0161617061806991FF1CF88
:1006200086957105610508940895E894BB276627AF
:100630007727CB0197F908950E942F030C94E202CB
:100640000E94D40238F00E94DB0220F0952311F0C2
:100650000C94CB020C94D10211240C9416030E942A
:10066000F30270F3959FC1F3950F50E0551F629F01
:10067000F001729FBB27F00DB11D639FAA27F00DFB
:10068000B11DAA1F649F6627B00DA11D661F829F22
:100690002227B00DA11D621F739FB00DA11D621F07
:1006A000839FA00D611D221F749F3327A00D611D24
:1006B000231F849F600D211D822F762F6A2F112406
:1006C0009F5750409AF0F1F088234AF0EE0FFF1F39
:1006D000BB1F661F771F881F91505040A9F79E3F90
:1006E000510580F00C94CB020C9416035F3FE4F3A9
:1006F000983ED4F3869577956795B795F795E795E6
:100700009F5FC1F7FE2B880F911D9695879597F9EE
:10071000089597FB072E16F4009407D077FD09D0B3
:100720000E949D0307FC05D03EF4909581959F4F54
:100730000895709561957F4F0895AA1BBB1B51E1E9
:1007400007C0AA1FBB1FA617B70710F0A61BB70B41
:10075000881F991F5A95A9F780959095BC01CD01E6
:060760000895F894FFCF9C
:100766003F0006005B004F0066006D007D0007003D
:040776007F006F0091
:00000001FF
