:100000000C945C000C946E000C946E000C946E00CA
:100010000C946E000C946E000C946E000C946E00A8
:100020000C946E000C946E000C946E000C946E0098
:100030000C946E000C946E000C946E000C946E0088
:100040000C948A010C946E000C946E000C946E005B
:100050000C946E000C946E000C946E000C946E0068
:100060000C946E000C946E00000000080002010069
:100070000003040700000000000000000000000072
:10008000250028002B0000000000240027002A0083
:10009000040404040404040402020202020203032E
:1000A0000303030301020408102040800102040836
:1000B000102001020408102011241FBECFEFD8E049
:1000C000DEBFCDBF21E0A0E0B1E001C01D92A930AC
:1000D000B207E1F70E94D4010C944A020C9400008C
:1000E000EDEAF0E02491E9E9F0E08491882399F0C9
:1000F00090E0880F991FFC01EA57FF4FA591B4913A
:10010000FC01E458FF4F859194918FB7F894EC91DE
:10011000E22BEC938FBF0895E1E7F0E02491EDEA44
:10012000F0E09491E9E9F0E0E491EE2309F43BC0BA
:10013000222339F1233091F038F42130A9F0223014
:1001400001F524B52F7D12C0273091F02830A1F0A1
:100150002430B9F4209180002F7D03C020918000CD
:100160002F77209380000DC024B52F7724BD09C0C0
:100170002091B0002F7703C02091B0002F7D2093F5
:10018000B000F0E0EE0FFF1FE458FF4FA591B491CF
:100190002FB7F894EC91811103C090959E2301C074
:1001A0009E2B9C932FBF0895CF93DF93EC010E9469
:1001B0007000209711F480E004C0CF3FD10529F4EE
:1001C00081E0DF91CF910C948C00E1E7F0E0E491C5
:1001D000E330F9F048F4E130B9F0E230A1F584B54C
:1001E000806284BDC8BD34C0E730E9F0E83019F161
:1001F000E43049F580918000806280938000D09344
:100200008B00C0938A0024C084B5806884BDC7BDBC
:100210001FC080918000806880938000D093890007
:10022000C093880015C08091B00080688093B000B2
:10023000C093B3000DC08091B00080628093B00085
:10024000C093B40005C0C038D1050CF0B9CFB3CF0E
:10025000DF91CF9108953FB7F89480910501909177
:100260000601A0910701B091080126B5A89B05C021
:100270002F3F19F00196A11DB11D3FBFBA2FA92F25
:10028000982F8827820F911DA11DB11DBC01CD01A2
:1002900042E0660F771F881F991F4A95D1F708958E
:1002A0008F929F92AF92BF92CF92DF92EF92FF9286
:1002B0006B017C010E942B014B015C01C114D10434
:1002C000E104F104F1F00E942B01DC01CB0188195B
:1002D0009909AA09BB09883E9340A105B10570F3AD
:1002E00021E0C21AD108E108F10888EE880E83E007
:1002F000981EA11CB11CC114D104E104F10419F72A
:10030000DDCFFF90EF90DF90CF90BF90AF909F90A8
:100310008F9008951F920F920FB60F9211242F9372
:100320003F938F939F93AF93BF93809101019091DF
:100330000201A0910301B09104013091000123E07A
:10034000230F2D3720F40196A11DB11D05C026E80D
:10035000230F0296A11DB11D20930001809301017E
:1003600090930201A0930301B093040180910501D1
:1003700090910601A0910701B09108010196A11D7D
:10038000B11D8093050190930601A0930701B093DE
:100390000801BF91AF919F918F913F912F910F9045
:1003A0000FBE0F901F901895789484B5826084BD1D
:1003B00084B5816084BD85B5826085BD85B5816069
:1003C00085BD80916E00816080936E0010928100E7
:1003D00080918100826080938100809181008160A2
:1003E0008093810080918000816080938000809163
:1003F000B10084608093B1008091B00081608093EF
:10040000B00080917A00846080937A0080917A00B5
:10041000826080937A0080917A00816080937A0074
:1004200080917A00806880937A001092C1000E94C7
:10043000700000E010E0C0E0D0E0CE010E94D400E7
:1004400062E370E080E090E00E9450012196C115C7
:1004500081E0D80791F764EF71E080E090E00E94BE
:100460005001CFEFD0E0CE010E94D40062E370E0F3
:1004700080E090E00E9450012197A9F764EF71E0BD
:1004800080E090E00E94500101151105A1F20E9448
:080490000000D1CFF894FFCF6A
:00000001FF
