:100000000C9463000C948B000C948B000C948B006C
:100010000C948B000C948B000C948B000C948B0034
:100020000C948B000C948B000C948B000C948B0024
:100030000C948B000C948B000C948B000C948B0014
:100040000C94AF060C948B000C9496050C947005E0
:100050000C948B000C948B000C948B000C948B00F4
:100060000C948B000C948B000000000024002700EF
:100070002A0000000000250028002B0000000000DE
:1000800023002600290004040404040404040202DA
:100090000202020203030303030301020408102007
:1000A0004080010204081020010204081020000012
:1000B0000008000201000003040700000000000027
:1000C000000003088C0A11241FBECFEFD8E0DEBF6A
:1000D000CDBF23E0A4ECB1E001C01D92A930B2076E
:1000E000E1F711E0A0E0B1E0EAEFF9E102C005902C
:1000F0000D92A43CB107D9F710E0C2E6D0E004C0ED
:100100002197FE010E94D50AC136D107C9F70E9486
:10011000D1080C94F00C0C94000096E0899FD0015B
:100120001124A558BD4F90967C936E935F9791E0F4
:1001300091969C9391979091E702E091E802F0915B
:10014000E902992339F0309751F0811108C080916C
:10015000970204C0309719F05C968C910994089529
:10016000EF92FF920F931F93CF93DF93EC016230D6
:1001700018F08F8588608F876B8B1C8A80E48D8B4D
:1001800080E18E8B80E58F8B61E08C810E943E0642
:100190008D818F3F19F061E00E943E0661E08E8103
:1001A0000E943E067E0187E0E80EF11C00E010E0B0
:1001B0008F8584FD03C084E090E002C088E090E079
:1001C000081719074CF461E0F70181917F010E9443
:1001D0003E060F5F1F4FECCF8BE39DE00197F1F7D9
:1001E00060E08C810E94F40560E08E810E94F4053D
:1001F0008D818F3F19F060E00E94F4056F8564FDEA
:100200001DC063E0CE010E94F9060BE416E4C801AC
:100210000197F1F763E0CE010E94F906C80101974A
:10022000F1F763E0CE010E94F90683E592E00197C1
:10023000F1F762E0CE010E94F90616C06062CE01BD
:100240000E947F078BE496E40197F1F76F85606267
:10025000CE010E947F0783E592E00197F1F76F8559
:100260006062CE010E947F076F856062CE010E94AE
:100270007F0784E0888B6CE0CE010E947F07CE016F
:100280000E94820782E0898B66E0CE01DF91CF91E8
:100290001F910F91FF90EF900C947F078F929F9288
:1002A000AF92BF92CF92DF92EF92FF920E947E06B2
:1002B0004B015C0180EDC82E87E0D82EE12CF12C9B
:1002C0000E947E06DC01CB0188199909AA09BB09A5
:1002D000883E9340A105B10558F021E0C21AD1082B
:1002E000E108F10888EE880E83E0981EA11CB11C7D
:1002F000C114D104E104F10419F7FF90EF90DF90ED
:10030000CF90BF90AF909F908F9008950F931F93C1
:10031000CF93DF9300D0CDB7DEB789831A820091E7
:10032000FA021091FB020F5F1F4FB80186EF92E0B7
:100330000E9409058823A1F02091F6023091F7026E
:100340008091FA029091FB02BE016F5F7F4F820F96
:10035000931F0E94E90C1093FB020093FA0281E0C4
:100360000F900F90DF91CF911F910F9108952091E1
:10037000FA023091FB028217930760F49093FB021C
:100380008093FA022091F6023091F702F901E80F0A
:10039000F91F108208950F931F93CF93DF93C82FF7
:1003A000D62F86E0C89FF0011124E558FD4F11A219
:1003B000878D90A181309105F1F01CF4892B49F0D3
:1003C00043C082309105A9F10397F1F560E070E038
:1003D00034C06623C9F161E070E08C2F0E948D006B
:1003E0000E94A3066093D3027093D4028093D50237
:1003F0009093D60229C00E94A3060091D3021091C7
:10040000D4022091D5023091D602AB01BC01401B31
:10041000510B620B730B8091E5029091E602A0E014
:10042000B0E084179507A607B70718F462E070E0FC
:1004300004C0D11109C063E070E08C2FDF91CF912F
:100440001F910F910C948D00DF91CF911F910F910F
:1004500008956F927F928F929F92AF92BF92CF92A8
:10046000DF92EF92FF920F931F93CF93DF9381E080
:100470008093E7020E94A3060091D7021091D80250
:100480002091D9023091DA02AB01BC01401B510B23
:10049000620B730B8091E3029091E402A0E0B0E064
:1004A00084179507A607B70708F00BC1C0E0809135
:1004B000E102C81760F4E091DD02F091DE02EC0F7A
:1004C000F11D62E080810E943E06CF5FF0CF712C6B
:1004D000812C912C540183948091E202781608F0CB
:1004E0005FC0072D10E0E091DF02F091E002E00F25
:1004F000F11F61E080810E943E06E091DF02F091F1
:10050000E002E00FF11F60E080810E94F405D50158
:10051000C401072C04C0880F991FAA1FBB1F0A948F
:10052000D2F76C017C01E094F094612C8091E1029F
:100530006816F8F4C62DD0E0E091DD02F091DE02FD
:10054000EC0FFD1F80810E94C8052496CC0FDD1F93
:10055000C558DD4F892B29F4888199818C299D29E3
:1005600004C0888199818E219F2199838883639417
:10057000DDCFE091DF02F091E002E00FF11F61E0DA
:1005800080810E94F4058091DF029091E002FC01DD
:10059000E00FF11F60E080810E943E0673949CCFC3
:1005A000E7E9F2E08FEF9FEF23813481232B21F4E1
:1005B0001082928381831582369622E0E33DF20712
:1005C00099F710E096E0F92E8091E102181708F0F3
:1005D00052C000E0C12FD0E0CC0FDD1FCD57DD4F62
:1005E0002091E202021708F044C068817981002E50
:1005F00002C0769567950A94E2F761707727129F9B
:1006000090011124200F311DE091DB02F091DC02FA
:10061000E20FF31F4081EBE7F2E080E0A58DB68D9D
:10062000A217B30711F461701AC08F5F36968A3033
:10063000A9F7672BE1F0E7E9F2E080E090E0508174
:10064000511110C0F89EF001F99EF00D1124E558EB
:10065000FD4F448F368F258F10A2178E61E00E94C8
:10066000CB0105C0019636968A30910541F70F5FA0
:10067000B7CF1F5FA9CF80E090E0C0E0FC01E55854
:10068000FD4F21A12111C1E006968C339105B1F7F0
:100690000E94A3066093D7027093D8028093D90278
:1006A0009093DA02CC2369F080919C02882349F070
:1006B00080919A0290919B02019719F48091970280
:1006C00003C01092E70280E0DF91CF911F910F915C
:1006D000FF90EF90DF90CF90BF90AF909F908F9062
:1006E0007F906F900895643008F063E090917602F7
:1006F000691710F06FEF690FE62FF0E0ED59FD4F2D
:100700009489682F690F606883E692E00C947F07F4
:10071000009769F0FC0101900020E9F73197AF01E3
:10072000481B590BBC0183E692E00C949B0380E0CC
:1007300090E008950895CF92DF92EF92FF920F9389
:100740001F93CF93DF936C017A018B01C0E0D0E05F
:10075000CE15DF0589F0D8016D918D01D601ED919F
:10076000FC910190F081E02DC6010995892B11F4CF
:100770007E0102C02196ECCFC701DF91CF911F917E
:100780000F91FF90EF90DF90CF900895FC01538D73
:10079000448D252F30E0842F90E0821B930B54175B
:1007A00010F0CF96089501970895FC01918D828DE8
:1007B000981761F0828DDF01A80FB11D5D968C91B5
:1007C000928D9F5F9F73928F90E008958FEF9FEFC0
:1007D0000895FC01918D828D981731F0828DE80F7C
:1007E000F11D858D90E008958FEF9FEF0895FC0136
:1007F000918D228D892F90E0805C9F4F821B910903
:100800008F739927089586EC91E00E94F70321E009
:10081000892B09F420E0822F0895FC01848DDF01EB
:10082000A80FB11DA35ABF4F2C91848D90E0019663
:100830008F739927848FA689B7892C93A089B18952
:100840008C9180648C93938D848D981306C002885C
:10085000F389E02D80818F7D80830895EF92FF9250
:100860000F931F93CF93DF93EC0181E0888F9B8DD3
:100870008C8D981305C0E889F989808185FD24C095
:10088000F62E0B8D10E00F5F1F4F0F731127E02E18
:100890008C8DE8120CC00FB607FCFACFE889F989F5
:1008A000808185FFF5CFCE010E940D04F1CF8B8DA5
:1008B000FE01E80FF11DE35AFF4FF0820B8FEA892A
:1008C000FB898081806207C0EE89FF896083E889A7
:1008D000F98980818064808381E090E0DF91CF910D
:1008E0001F910F91FF90EF900895CF93DF93EC014C
:1008F000888D8823C9F0EA89FB89808185FD05C040
:10090000A889B9898C9186FD0FC00FB607FCF5CF79
:10091000808185FFF2CFA889B9898C9185FFEDCFC1
:10092000CE010E940D04E7CFDF91CF91089580E0C2
:1009300090E0892B29F00E94030481110C9400009F
:100940000895833081F028F4813099F08230A1F04D
:1009500008958730A9F08830B9F08430D1F48091BF
:1009600080008F7D03C0809180008F77809380000E
:10097000089584B58F7702C084B58F7D84BD0895B6
:100980008091B0008F7703C08091B0008F7D8093FD
:10099000B0000895089580E090E008950E94D20C80
:1009A0000F931F93CF93DF938C01EB01FC018081A8
:1009B00091810097B1F0688179816115710579F0B5
:1009C000428153812C813D814217530740F00E94A0
:1009D000E90C8C819D81F8019583848313C00E946A
:1009E000700B88819981F801918380838A819B8132
:1009F000938382838C819D8195838483198218825D
:100A00001B821A821D821C82DF91CF911F910F9150
:100A100008950F931F93CF93DF93EC018881998101
:100A2000009729F02A813B812617370788F48B012C
:100A30006F5F7F4F0E94080C009761F09983888355
:100A40001B830A832C813D81232B11F4FC0110822E
:100A500081E001C080E0DF91CF911F910F91089557
:100A6000EF92FF920F931F93CF93DF93EC017B01E3
:100A70008A01BA010E9409052881398181110DC0BE
:100A80002115310519F0C9010E94700B19821882D5
:100A90001D821C821B821A8206C01D830C83B70133
:100AA000C9010E94E90CCE01DF91CF911F910F91F6
:100AB000FF90EF900895FC01118210821382128240
:100AC000158214826115710551F0FB01019000201F
:100AD000E9F73197AF01461B570B0C943005089589
:100AE0001F920F920FB60F9211242F933F934F93A3
:100AF0005F936F937F938F939F93AF93BF93EF9386
:100B0000FF9386EC91E00E940D04FF91EF91BF915D
:100B1000AF919F918F917F916F915F914F913F9195
:100B20002F910F900FBE0F901F9018951F920F924C
:100B30000FB60F9211242F938F939F93EF93FF93F0
:100B4000E091D601F091D7018081E091DC01F09134
:100B5000DD0182FD12C090818091DF018F5F8F7374
:100B60002091E001821751F0E091DF01F0E0EA53BB
:100B7000FE4F958F8093DF0101C08081FF91EF913F
:100B80009F918F912F910F900FBE0F901F901895EE
:100B9000CF93DF93282F30E0F901E255FF4F849186
:100BA000F901E656FF4FD491F901EA57FF4FC4917E
:100BB000CC2391F081110E94A104EC2FF0E0EE0F04
:100BC000FF1FE458FF4FA591B491EC91ED2381E014
:100BD00090E021F480E002C080E090E0DF91CF91CE
:100BE0000895862F0C94C8051F93CF93DF93282F69
:100BF00030E0F901E255FF4F8491F901E656FF4FCD
:100C0000D491F901EA57FF4FC491CC23C9F0162FB4
:100C100081110E94A104EC2FF0E0EE0FFF1FEE58AF
:100C2000FF4FA591B4918FB7F894111105C09C9115
:100C3000ED2FE095E92302C0EC91ED2BEC938FBFF3
:100C4000DF91CF911F910895CF93DF93EC0160E086
:100C50008E810E94F40561E08E810E94F40560E0BF
:100C60008E810E94F4058BE891E00197F1F7DF9106
:100C7000CF910895862F642F0C94F405CF93DF93C2
:100C800090E0FC01E656FF4F2491FC01EA57FF4F2C
:100C90008491882361F190E0880F991FFC01E85945
:100CA000FF4FC591D491FC01EE58FF4FA591B4912F
:100CB000611109C09FB7F8948881209582238883A9
:100CC000EC912E230BC0623061F49FB7F894388109
:100CD000822F809583238883EC912E2B2C939FBFAA
:100CE00006C08FB7F894E8812E2B28838FBFDF9141
:100CF000CF910895862F642F0C943E063FB7F89449
:100D00008091010390910203A0910303B091040329
:100D100026B5A89B05C02F3F19F00196A11DB11D56
:100D20003FBFBA2FA92F982F8827820F911DA11D91
:100D3000B11DBC01CD0142E0660F771F881F991FCE
:100D40004A95D1F708952FB7F8946091FD027091FC
:100D5000FE028091FF02909100032FBF08951F9221
:100D60000F920FB60F9211242F933F938F939F935F
:100D7000AF93BF938091FD029091FE02A091FF027C
:100D8000B09100033091FC0223E0230F2D3720F4B3
:100D90000196A11DB11D05C026E8230F0296A11DD5
:100DA000B11D2093FC028093FD029093FE02A0935C
:100DB000FF02B09300038091010390910203A09180
:100DC0000303B09104030196A11DB11D809301039B
:100DD00090930203A0930303B0930403BF91AF91D8
:100DE0009F918F913F912F910F900FBE0F901F9069
:100DF0001895CF92DF92EF92FF920F931F93CF93AC
:100E0000DF937C016C0187E0C80ED11CC0E0D0E00C
:100E1000062F10E0B8010C2E02C0759567950A9454
:100E2000E2F76170F60181916F010E94F40521964D
:100E3000C430D10579F7C701DF91CF911F910F9190
:100E4000FF90EF90DF90CF900C942406CF92DF922A
:100E5000EF92FF920F931F93CF93DF93EC01F62E47
:100E6000642F8C810E94F4058D818F3F19F060E022
:100E70000E94F4058F850F2D10E084FF25C06E01C0
:100E800087E0C80ED11CE12CF12CB8010E2C02C059
:100E9000759567950A94E2F76170F60181916F018B
:100EA0000E94F405FFEFEF1AFF0A88E0E816F1044C
:100EB00061F7CE01DF91CF911F910F91FF90EF90DD
:100EC000DF90CF900C942406B80184E07595679567
:100ED0008A95E1F7CE010E94F9066F2DCE01DF91D0
:100EE000CF911F910F91FF90EF90DF90CF900C94D6
:100EF000F90641E00E94260781E090E0089540E075
:100F00000C94260761E00E947F078BE39FE1019725
:100F1000F1F70895CF93DF9300D000D000D0CDB784
:100F2000DEB763EC71E0CE0101960E945B05BE0165
:100F30006F5F7F4F86EF92E00E94D00489819A8193
:100F40000E94700B1092C5011092C40126960FB634
:100F5000F894DEBF0FBECDBFDF91CF910895CF9340
:100F6000DF9383E692E00E94820760E080E00E94C7
:100F7000730383EA91E00E9488038091C4019091F9
:100F8000C501892B99F0C0E0D0E08091C401909117
:100F9000C501C817D90754F461E08C2F0E94730370
:100FA00081EB91E00E9488032196EFCFDF91CF91F2
:100FB0000895CF93DF9383E692E00E94820760E07A
:100FC00080E00E94730383EB91E00E94880380918C
:100FD000C4019091C501892B99F0C0E0D0E08091C7
:100FE000C4019091C501C817D90754F461E08C2F52
:100FF0000E94730381EB91E00E9488032196EFCF5A
:10100000DF91CF9108951092C9011092C80188EE26
:1010100093E0A0E0B0E08093CA019093CB01A0934D
:10102000CC01B093CD0186E291E09093C70180930B
:10103000C60185EC90E09093D3018093D20184ECBB
:1010400090E09093D5018093D40180EC90E0909350
:10105000D7018093D60181EC90E09093D9018093E1
:10106000D80182EC90E09093DB018093DA0186EC6A
:1010700090E09093DD018093DC011092DF011092EB
:10108000E0011092E1011092E20163EC71E086EF61
:1010900092E00E945B056AE471E080EF92E00E94BA
:1010A0005B056FE471E08AEE92E00E945B051092AE
:1010B0007D0210928102109280021092820284E4DA
:1010C00091E090937C0280937B0280E090E0FC01B1
:1010D000E558FD4F148E10A2178E11A206968C3380
:1010E0009105A9F788E091E09093DE028093DD02FC
:1010F00084E091E09093E0028093DF0284E08093AB
:10110000E1028093E2028CE091E09093DC02809314
:10111000DB028AE090E09093E4028093E30284EFA4
:1011200091E09093E6028093E5021092E90210921A
:10113000E8021092D7021092D8021092D9021092AF
:10114000DA021092E702109266021092650288E3BA
:1011500091E090936402809363028EE08093670233
:101160008FEF809368028FE08093690280E1809323
:101170006A0281E180936B0282E180936C0283E1D9
:1011800080936D0210926E0210926F0210927002A4
:10119000109271021092720261E083E692E00C9468
:1011A000B000CF93DF93CDB7DEB727970FB6F89493
:1011B000DEBF0FBECDBF789484B5826084BD84B598
:1011C000816084BD85B5826085BD85B5816085BD42
:1011D00080916E00816080936E00109281008091FA
:1011E0008100826080938100809181008160809382
:1011F0008100809180008160809380008091B100A7
:1012000084608093B1008091B00081608093B000D1
:1012100080917A00846080937A0080917A00826065
:1012200080937A0080917A00816080937A00809127
:101230007A00806880937A001092C100E091D60114
:10124000F091D70182E08083E091D201F091D30147
:101250001082E091D401F091D5018FEC808310923F
:10126000DE01E091DA01F091DB0186E08083E0911C
:10127000D801F091D901808180618083E091D8010B
:10128000F091D901808188608083E091D801F0914C
:10129000D901808180688083E091D801F091D901E3
:1012A00080818F7D808362E083E692E00E94B000BF
:1012B00001E010E08091EE029091EF02892B09F499
:1012C00028C1E090EA02F090EB0269E571E0C70105
:1012D0000E94E00C892B09F08DC00E942902209108
:1012E000020130910301232B51F08F830E948A0762
:1012F0000E94D90710920301109202018F81853458
:10130000A9F08CF490ED980F9A3008F002C10E9479
:1013100086018091C4019091C50101969093C50109
:101320008093C40164C0833569F0F3C08091C40127
:101330009091C50101979093C5018093C4010E94CB
:10134000B70155C02091F4023091F5028091FA0264
:101350009091FB022817390791F58091F002909146
:10136000F1026091F6027091F702009719F0611591
:101370007105A1F46115710549F0232B99F0FB016A
:10138000808190E09195819591090AC0009751F074
:10139000232B41F0FC01808190E002C00E94E00C10
:1013A000892B69F483E692E00E94820760E080E086
:1013B0000E94730388E691E00E948803FFCF83E6D2
:1013C00092E00E94820760E080E00E94730381E760
:1013D00091E00E94880361E080E00E9473038BE744
:1013E00091E00E9488030E944E010E948A070E9499
:1013F000D9078FC06FE471E0C7010E94E00C892B10
:1014000009F087C00E94290220910001309101015A
:10141000232B51F08F830E948A070E94AF071092FE
:101420000101109200018F818534A9F08CF490EDB8
:10143000980F9A3008F06DC00E9486018091C40117
:101440009091C50101969093C5018093C4015FC03E
:10145000833569F05EC08091C4019091C501019708
:101460009093C5018093C4010E94B70150C0609160
:10147000F6027091F7026115710549F04091FA0288
:101480005091FB0280EF92E00E94300514C08091E1
:10149000F0029091F102009711F00E94700B1092EF
:1014A000F1021092F0021092F5021092F4021092E2
:1014B000F3021092F20283E692E00E94820760E05B
:1014C00080E00E94730386E891E00E94880361E057
:1014D00080E00E94730388E991E00E9488030E94E3
:1014E0004E0169E571E0CE0101960E945B05BE01E7
:1014F0006F5F7F4F8AEE92E00E94D00489819A81CB
:101500000E94700B109303010093020102C00E941D
:10151000AF070E949704CECE8091EA029091EB0231
:101520000E94700B8091F0029091F1020E94700B6A
:101530008091F6029091F7020C94700B2F923F92DB
:101540004F925F926F927F928F929F92AF92BF92D3
:10155000CF92DF92EF92FF920F931F93CF93DF937F
:10156000CDB7DEB7CA1BDB0B0FB6F894DEBF0FBEDC
:10157000CDBF09942A88398848885F846E847D8429
:101580008C849B84AA84B984C884DF80EE80FD802B
:101590000C811B81AA81B981CE0FD11D0FB6F894A1
:1015A000DEBF0FBECDBFED010895EE0FFF1F05900A
:1015B000F491E02D0994CF93DF938230910510F4DC
:1015C00082E090E0E0910703F091080320E030E032
:1015D000C0E0D0E0309711F14081518148175907A0
:1015E000C0F04817590761F482819381209719F060
:1015F0009B838A832BC0909308038093070326C0A4
:101600002115310519F04217530718F49A01BE014C
:10161000DF01EF010280F381E02DDCCF21153105E0
:1016200009F1281B390B2430310590F412968D9165
:101630009C9113976115710521F0FB0193838283BF
:1016400004C09093080380930703FD01329644C0C1
:10165000FD01E20FF31F81939193225031092D93E5
:101660003C933AC02091050330910603232B41F4AB
:1016700020911E0130911F01309306032093050332
:1016800020911C0130911D012115310541F42DB728
:101690003EB74091200150912101241B350BE09170
:1016A0000503F0910603E217F307A0F42E1B3F0B8E
:1016B0002817390778F0AC014E5F5F4F24173507C4
:1016C00048F04E0F5F1F509306034093050381932C
:1016D000919302C0E0E0F0E0CF01DF91CF91089557
:1016E0000F931F93CF93DF93009709F48CC0FC01F5
:1016F000329713821282009107031091080301159B
:10170000110581F420813181820F931F20910503FF
:10171000309106032817390779F5F0930603E09313
:10172000050371C0D80140E050E0AE17BF0750F488
:1017300012962D913C911397AD012115310509F1B8
:10174000D901F3CF9D01DA01338322836081718156
:10175000860F971F8217930769F4EC01288139815E
:10176000260F371F2E5F3F4F318320838A819B8155
:1017700093838283452B29F4F0930803E0930703B6
:1017800042C01396FC93EE931297ED014991599143
:101790009E01240F351FE217F30771F480819181B8
:1017A000840F951F029611969C938E93828193814C
:1017B00013969C938E931297E0E0F0E0D801129676
:1017C0008D919C911397009719F0F8018C01F6CF39
:1017D0008D919C9198012E5F3F4F820F931F209116
:1017E0000503309106032817390769F4309729F467
:1017F000109208031092070302C013821282109302
:10180000060300930503DF91CF911F910F91089577
:10181000A0E0B0E0EEE0FCE00C94A20AEC0100973E
:1018200021F4CB010E94DB0AB8C0FC01E60FF71FD0
:101830009C0122503109E217F30708F4ACC0D9012A
:101840000D911C91119706171707B0F0053011057F
:1018500008F49FC0C80104978617970708F499C039
:1018600002501109061B170B019311936D937C9382
:10187000CF010E94700B8DC05B01A01AB10A4C0110
:10188000800E911EA0910703B091080340E050E044
:10189000E12CF12C109709F44AC0A815B905D1F52F
:1018A0006D907C901197630182E0C80ED11CCA1420
:1018B000DB0480F1A3014A195B096A0182E0C80ECA
:1018C000D11C1296BC9012971396AC91B5E0CB1632
:1018D000D10440F0B282A38351834083D9016D9338
:1018E0007C930AC00E5F1F4FC301800F911FF90147
:1018F00091838083EB2DFA2FE114F10431F0D701AD
:101900001396FC93EE93129744C0F0930803E09370
:1019100007033FC08D919C9111974817590708F410
:10192000AC017D0112960D90BC91A02DB3CF80919A
:1019300005039091060388159905E1F446175707AA
:10194000C8F480911C0190911D01009741F48DB75E
:101950009EB74091200150912101841B950BE817FF
:10196000F907C8F4F0930603E0930503F9017183C6
:1019700060830FC0CB010E94DB0A7C01009759F005
:10198000A801BE010E94D70CCE010E94700BC701B6
:1019900004C0CE0102C080E090E0CDB7DEB7EEE03B
:1019A0000C94BE0A81E090E0F8940C94F00CFB01DA
:1019B000DC0102C001900D9241505040D8F70895CB
:1019C000FB01DC018D91019080190110D9F3990B75
:1019D0000895FB01DC0101900D920020E1F70895CC
:1019E00010E0C2E6D0E004C0FE010E94D50A2196B4
:0A19F000C336D107C9F7F894FFCF02
:1019FA0001000100070605040B0A090837383945B2
:101A0A003435362A3132332D43304B530000090323
:101A1A008000000000002E049B03C6037504F70330
:101A2A00D503E9030000000079079B03CB04CA042D
:101A3A00000000007A063A06F10531323334006EAE
:101A4A00657750617373776400656E746572696E49
:101A5A00675061737377640057656C636F6D6521B6
:101A6A0000496E636F727265637400547279204123
:101A7A006761696E210050617373776F72642053D6
:101A8A007563636573732D0066756C6C7920536595
:101A9A007421004E65772050617373636F64653AF1
:101AAA00002A00456E7465722070617373636F64F7
:041ABA00653A200069
:00000001FF
