:100000000C9452000C946F000C946F000C946F00D1
:100010000C946F000C946F000C946F000C946F00A4
:100020000C946F000C946F000C946F000C946F0094
:100030000C946F000C946F000C946F000C946F0084
:100040000C9496000C946F000C946F000C946F004D
:100050000C946F000C946F000C946F000C946F0064
:100060000C946F000C946F00000000002500280025
:100070002B0000000000240027002A0004040404D0
:100080000404040402020202020203030303030342
:10009000010204081020408001020408102001021F
:1000A0000408102011241FBECFEFD8E0DEBFCDBF63
:1000B00011E0A0E0B1E0E2E0F3E002C005900D92B3
:1000C000A431B107D9F721E0A4E1B1E001C01D924C
:1000D000AD31B207E1F70E94E0000C947F010C946F
:1000E00000003FB7F8948091190190911A01A091F6
:1000F0001B01B0911C0126B5A89B05C02F3F19F02C
:100100000196A11DB11D3FBFBA2FA92F982F882797
:10011000820F911DA11DB11DBC01CD0142E0660FF2
:10012000771F881F991F4A95D1F708951F920F9244
:100130000FB60F9211242F933F938F939F93AF93FA
:10014000BF938091150190911601A0911701B09174
:1001500018013091140123E0230F2D3720F401966C
:10016000A11DB11D05C026E8230F0296A11DB11DDA
:10017000209314018093150190931601A093170109
:10018000B09318018091190190911A01A0911B015F
:10019000B0911C010196A11DB11D8093190190938E
:1001A0001A01A0931B01B0931C01BF91AF919F91C5
:1001B0008F913F912F910F900FBE0F901F90189528
:1001C000789484B5826084BD84B5816084BD85B532
:1001D000826085BD85B5816085BD80916E0081603E
:1001E00080936E00109281008091810082608093E4
:1001F00081008091810081608093810080918000E6
:100200008160809380008091B10084608093B10010
:100210008091B00081608093B00080917A0084600A
:1002200080937A0080917A00826080937A00809136
:100230007A00816080937A0080917A008068809350
:100240007A001092C10020E030E0F901E057FF4F42
:100250004491F901E458FF4F8491882399F090E08C
:10026000880F991FFC01EE58FF4FA591B491FC0136
:10027000E859FF4F859194918FB7F894EC91E42B56
:10028000EC938FBF2F5F3F4F27303105F1F600E031
:1002900010E0C0E0D1E0888122968BB90E94710005
:1002A0004B015C0184EFC82EDD24D394E12CF12CAA
:1002B0000E947100DC01CB0188199909AA09BB09C8
:1002C000883E9340A105B10558F021E0C21AD1083B
:1002D000E108F10888EE880E83E0981EA11CB11C8D
:1002E000C114D104E104F10419F781E0C431D80745
:1002F00091F60115110569F20E940000CACFF89429
:02030000FFCF2D
:100302007E0030006D00790033005B005F007000FA
:040312007F007B00ED
:00000001FF
