:100000000C945D000C9485000C9485000C94850084
:100010000C9485000C9485000C9485000C9485004C
:100020000C9485000C9485000C9485000C9485003C
:100030000C9485000C9485000C9485000C9485002C
:100040000C94D5020C9485000C9485000C948500CA
:100050000C9485000C9485000C9485000C9485000C
:100060000C9485000C9485000000000024002700FB
:100070002A0000000000250028002B0004040404CE
:100080000404040402020202020203030303030342
:10009000010204081020408001020408102001021F
:1000A00004081020000000080002010000030407FB
:1000B0000000000000000000720411241FBECFEFFA
:1000C000D8E0DEBFCDBF11E0A0E0B1E0E8EFFDE099
:1000D00002C005900D92AA32B107D9F721E0AAE239
:1000E000B1E001C01D92AF34B207E1F710E0CDE5F9
:1000F000D0E004C02197FE010E94EF06CC35D10765
:10010000C9F70E941F030C94FA060C940000CF92CA
:10011000DF92EF92FF920F931F93CF93DF936C01C7
:100120007A018B01C0E0D0E0CE15DF0589F0D8015F
:100130006D918D01D601ED91FC910190F081E02D42
:10014000C6010995892B11F47E0102C02196ECCFDE
:10015000C701DF91CF911F910F91FF90EF90DF903A
:10016000CF90089590E0FC01EC55FF4F3491FC01D5
:10017000E057FF4F2491FC01E458FF4FE491EE2338
:1001800009F43BC0332339F1333091F038F4313086
:10019000A9F0323001F584B58F7D12C0373091F06F
:1001A0003830A1F03430B9F4809180008F7D03C0E5
:1001B000809180008F77809380000DC084B58F7709
:1001C00084BD09C08091B0008F7703C08091B000DA
:1001D0008F7D8093B000F0E0EE0FFF1FEE58FF4FD1
:1001E000A591B4918FB7F894EC91611103C020955B
:1001F0002E2301C02E2B2C938FBF0895CF93DF9316
:1002000090E0FC01E057FF4F2491FC01E458FF4FC0
:100210008491882361F190E0880F991FFC01E859CF
:10022000FF4FC591D491FC01EE58FF4FA591B491B9
:10023000611109C09FB7F894888120958223888333
:10024000EC912E230BC0623061F49FB7F894388193
:10025000822F809583238883EC912E2B2C939FBF34
:1002600006C08FB7F894E8812E2B28838FBFDF91CB
:10027000CF910895CF93DF93EC0160E08E810E94CF
:10028000B20061E08E810E94B20060E08E810E9427
:10029000B2008BE891E00197F1F7DF91CF910895DB
:1002A000CF92DF92EF92FF920F931F93CF93DF9342
:1002B0007C016C0187E0C80ED11CC0E0D0E0062FA5
:1002C00010E0B8010C2E02C0759567950A94E2F70C
:1002D0006170F60181916F010E94B2002196C430D5
:1002E000D10579F7C701DF91CF911F910F91FF9051
:1002F000EF90DF90CF900C943A01CF92DF92EF9283
:10030000FF920F931F93CF93DF93EC01F62E642F90
:100310008C810E94B2008D818F3F19F060E00E94B5
:10032000B2008F850F2D10E084FF25C06E0187E09D
:10033000C80ED11CE12CF12CB8010E2C02C0759511
:1003400067950A94E2F76170F60181916F010E944E
:10035000B200FFEFEF1AFF0A88E0E816F10461F738
:10036000CE01DF91CF911F910F91FF90EF90DF9021
:10037000CF900C943A01B80184E0759567958A9501
:10038000E1F7CE010E9450016F2DCE01DF91CF9198
:100390001F910F91FF90EF90DF90CF900C94500140
:1003A00041E00E947D0181E090E0089540E00C94DE
:1003B0007D01EF92FF920F931F93CF93DF93EC0198
:1003C000623018F08F8588608F876B8B1C8A80E481
:1003D0008D8B80E18E8B80E58F8B61E08C810E941C
:1003E000FE008D818F3F19F061E00E94FE0061E008
:1003F0008E810E94FE007E0187E0E80EF11C00E085
:1004000010E08F8584FD03C084E090E002C088E0A6
:1004100090E0081719074CF461E0F70181917F0122
:100420000E94FE000F5F1F4FECCF8BE39DE0019712
:10043000F1F760E08C810E94B20060E08E810E9442
:10044000B2008D818F3F19F060E00E94B2006F858D
:1004500064FD1DC063E0CE010E9450010BE416E470
:10046000C8010197F1F763E0CE010E945001C80175
:100470000197F1F763E0CE010E94500183E592E01D
:100480000197F1F762E0CE010E94500116C0606250
:10049000CE010E94D6018BE496E40197F1F76F85B7
:1004A0006062CE010E94D60183E592E00197F1F7E8
:1004B0006F856062CE010E94D6016F856062CE01B9
:1004C0000E94D60184E0888B6CE0CE010E94D601A8
:1004D00061E0CE010E94D6018BE39FE10197F1F725
:1004E00082E0898B66E0CE01DF91CF911F910F9161
:1004F000FF90EF900C94D601089580E090E008956D
:10050000009769F0FC0101900020E9F73197AF01F5
:10051000481B590BBC0187E391E00C94870080E0F5
:1005200090E008958F929F92AF92BF920F931F9386
:10053000CF93DF93CDB7DEB7A1970FB6F894DEBFA8
:100540000FBECDBF19A2423008F44AE08E010F5D04
:100550001F4F842E912CA12CB12CA50194010E9437
:10056000CD06E62FB901CA0101501109EA3014F491
:10057000E05D01C0E95CD801EC93232B242B252BF3
:1005800061F7C8010E948002A1960FB6F894DEBF01
:100590000FBECDBFDF91CF911F910F91BF90AF9054
:1005A0009F908F9008950E94F5061F920F920FB6AC
:1005B0000F9211242F933F938F939F93AF93BF93E9
:1005C00080912F0190913001A0913101B0913201C1
:1005D00030912E0123E0230F2D3720F40196A11D29
:1005E000B11D05C026E8230F0296A11DB11D209361
:1005F0002E0180932F0190933001A0933101B0938D
:10060000320180912A0190912B01A0912C01B0918F
:100610002D010196A11DB11D80932A0190932B01FC
:10062000A0932C01B0932D01BF91AF919F918F9119
:100630003F912F910F900FBE0F901F9018957894B7
:1006400084B5826084BD84B5816084BD85B58260D7
:1006500085BD85B5816085BD80916E008160809388
:100660006E001092810080918100826080938100F1
:100670008091810081608093810080918000816001
:10068000809380008091B10084608093B10080915C
:10069000B00081608093B00080917A008460809384
:1006A0007A0080917A00826080937A0080917A004B
:1006B000816080937A0080917A00806880937A00CC
:1006C0001092C10060E08EE00E94FE0062E087E3CD
:1006D00091E00E94D901E1E080914A018111E0E0BE
:1006E000E195F0E0E95CFE4F6489606887E391E0A2
:1006F0000E94D6018CE091E00E948002C0E0D0E030
:1007000010E410937C0080917A00806480937A00DA
:1007100080917A0086FDFCCF60917800809179000D
:1007200070E0782B072E000C880B990B0E94A60511
:1007300020E030EC4FE754E40E94030520E030E075
:1007400040EA50E40E945B066B017C016093330138
:10075000709334018093350190933601E0914A0102
:10076000E23010F4E15001C0E1E0F0E0E95CFE4F5E
:100770006489606887E391E00E94D601A701960131
:10078000C701B6010E94C806882319F08BE191E0E9
:100790001AC046015701E894B7F82FEF3FEF4FE733
:1007A0005FE7C501B4010E94C80681110FC02FEF99
:1007B0003FEF4FE75FE7C501B4010E94FE04181642
:1007C0002CF48FE191E00E94800282C02FEF3FEF76
:1007D0004FE75FE4C701B6010E94560618161CF4E5
:1007E00083E291E0F0CF2FEF3FEF4FE75FECC701DF
:1007F000B6010E94FE0487FDF3CF20E030E0A9019E
:10080000C701B6010E94FE0487FF0FC0E0913701C7
:10081000F09138010190F081E02D6DE287E391E0E5
:100820000995F7FAF094F7F8F0942AE037ED43EAE7
:100830005BE3C701B6010E9492044B015C010E9478
:1008400075056B017C010E94A4059B01AC01C501EB
:10085000B4010E9491044B015C014AE0C701B6015A
:100860000E949202E0913701F09138010190F081ED
:10087000E02D6EE287E391E0099520E030E040E270
:1008800051E4C501B4010E945B064B015C010E946A
:1008900075056B01E12CF12C4AE0C701B6010E94FD
:1008A0009202C701B6010E94A4059B01AC01C501DB
:1008B000B4010E94910420E030E040E251E40E9443
:1008C0005B060E94750580E090E04AE00E9492027B
:1008D00087E291E00E948002209709F412CF0E94E3
:1008E00000000FCFE7E3F1E01382128284E091E091
:1008F000918380838CE084838FEF85838BE0868374
:1009000085E0878384E0808783E0818782E0828737
:100910001386148615861686178661E0CF010C941F
:10092000D9015058BB27AA270E94A9040C941C0681
:100930000E940E0638F00E94150620F039F49F3F01
:1009400019F426F40C940B060EF4E095E7FB0C94D6
:100950000506E92F0E942D0658F3BA1762077307A0
:100960008407950720F079F4A6F50C944F060EF451
:10097000E0950B2EBA2FA02D0B01B90190010C01AF
:10098000CA01A0011124FF27591B99F0593F50F4C7
:10099000503E68F11A16F040A22F232F342F44271F
:1009A000585FF3CF469537952795A795F040539517
:1009B000C9F77EF41F16BA0B620B730B840BBAF0E7
:1009C0009150A1F0FF0FBB1F661F771F881FC2F752
:1009D0000EC0BA0F621F731F841F48F48795779566
:1009E0006795B795F7959E3F08F0B0CF9395880F20
:1009F00008F09927EE0F9795879508950E94E105D5
:100A000008F481E008950E9417050C941C060E94CA
:100A1000150658F00E940E0640F029F45F3F29F0B9
:100A20000C94050651110C9450060C940B060E9470
:100A30002D0668F39923B1F3552391F3951B550BBC
:100A4000BB27AA2762177307840738F09F5F5F4FA1
:100A5000220F331F441FAA1FA9F335D00E2E3AF0E0
:100A6000E0E832D091505040E695001CCAF72BD0F8
:100A7000FE2F29D0660F771F881FBB1F2617370749
:100A80004807AB07B0E809F0BB0B802DBF01FF277B
:100A900093585F4F3AF09E3F510578F00C9405064D
:100AA0000C9450065F3FE4F3983ED4F38695779517
:100AB0006795B795F7959F5FC9F7880F911D969534
:100AC000879597F90895E1E0660F771F881FBB1F90
:100AD000621773078407BA0720F0621B730B840B3D
:100AE000BA0BEE1F88F7E09508950E94350688F04E
:100AF0009F5798F0B92F9927B751B0F0E1F0660FE2
:100B0000771F881F991F1AF0BA95C9F714C0B13022
:100B100091F00E944F06B1E008950C944F06672FA4
:100B2000782F8827B85F39F0B93FCCF38695779551
:100B30006795B395D9F73EF490958095709561953A
:100B40007F4F8F4F9F4F0895E89409C097FB3EF465
:100B500090958095709561957F4F8F4F9F4F99230A
:100B6000A9F0F92F96E9BB279395F6958795779588
:100B70006795B795F111F8CFFAF4BB0F11F460FF48
:100B80001BC06F5F7F4F8F4F9F4F16C0882311F0A0
:100B900096E911C0772321F09EE8872F762F05C0B4
:100BA000662371F096E8862F70E060E02AF09A954F
:100BB000660F771F881FDAF7880F9695879597F944
:100BC0000895990F0008550FAA0BE0E8FEEF1616DE
:100BD0001706E807F907C0F012161306E407F50731
:100BE00098F0621B730B840B950B39F40A2661F0A5
:100BF000232B242B252B21F408950A2609F4A14048
:100C0000A6958FEF811D811D089597F99F6780E854
:100C100070E060E008959FEF80EC089500240A944E
:100C20001616170618060906089500240A941216C7
:100C30001306140605060895092E0394000C11F4FA
:100C4000882352F0BB0F40F4BF2B11F460FF04C0A7
:100C50006F5F7F4F8F4F9F4F089557FD9058440F00
:100C6000551F59F05F3F71F04795880F97FB991F0B
:100C700061F09F3F79F087950895121613061406C8
:100C8000551FF2CF4695F1DF08C016161706180655
:100C9000991FF1CF86957105610508940895E89430
:100CA000BB2766277727CB0197F908950E94E105B6
:100CB00008F48FEF08950E946E060C941C060E94A3
:100CC0000E0638F00E94150620F0952311F00C94C2
:100CD00005060C940B0611240C9450060E942D0658
:100CE00070F3959FC1F3950F50E0551F629FF0017F
:100CF000729FBB27F00DB11D639FAA27F00DB11D98
:100D0000AA1F649F6627B00DA11D661F829F222720
:100D1000B00DA11D621F739FB00DA11D621F839FA7
:100D2000A00D611D221F749F3327A00D611D231F7D
:100D3000849F600D211D822F762F6A2F11249F57CB
:100D400050409AF0F1F088234AF0EE0FFF1FBB1FCE
:100D5000661F771F881F91505040A9F79E3F51058D
:100D600080F00C9405060C9450065F3FE4F3983E27
:100D7000D4F3869577956795B795F795E7959F5F37
:100D8000C1F7FE2B880F911D9695879597F90895C9
:100D90000E94E105880B990B0895A1E21A2EAA1B67
:100DA000BB1BFD010DC0AA1FBB1FEE1FFF1FA2171B
:100DB000B307E407F50720F0A21BB30BE40BF50B18
:100DC000661F771F881F991F1A9469F760957095A1
:100DD000809590959B01AC01BD01CF010895EE0F68
:100DE000FF1F0590F491E02D099481E090E0F894C4
:080DF0000C94FA06F894FFCF01
:100DF80000000000D00187007D027C02566F6C74F1
:100E08006167655B302D35765D3A006E616E00690D
:0A0E18006E66006F7666002056003B
:00000001FF
