:100000000C945D000C9485000C9485000C94850084
:100010000C9485000C9485000C9485000C9485004C
:100020000C9485000C9485000C9485000C9485003C
:100030000C9485000C9485000C9485000C9485002C
:100040000C94D1020C9485000C9485000C948500CE
:100050000C9485000C9485000C9485000C9485000C
:100060000C9485000C9485000000000024002700FB
:100070002A0000000000250028002B0004040404CE
:100080000404040402020202020203030303030342
:10009000010204081020408001020408102001021F
:1000A00004081020000000080002010000030407FB
:1000B0000000000000000000540411241FBECFEF18
:1000C000D8E0DEBFCDBF11E0A0E0B1E0E8EDFCE09C
:1000D00002C005900D92AE31B107D9F721E0AEE133
:1000E000B1E001C01D92A334B207E1F710E0CDE505
:1000F000D0E004C02197FE010E945F06CC35D107F5
:10010000C9F70E941B030C946A060C940000CF925E
:10011000DF92EF92FF920F931F93CF93DF936C01C7
:100120007A018B01C0E0D0E0CE15DF0589F0D8015F
:100130006D918D01D601ED91FC910190F081E02D42
:10014000C6010995892B11F47E0102C02196ECCFDE
:10015000C701DF91CF911F910F91FF90EF90DF903A
:10016000CF90089590E0FC01EC55FF4F3491FC01D5
:10017000E057FF4F2491FC01E458FF4FE491EE2338
:1001800009F43BC0332339F1333091F038F4313086
:10019000A9F0323001F584B58F7D12C0373091F06F
:1001A0003830A1F03430B9F4809180008F7D03C0E5
:1001B000809180008F77809380000DC084B58F7709
:1001C00084BD09C08091B0008F7703C08091B000DA
:1001D0008F7D8093B000F0E0EE0FFF1FEE58FF4FD1
:1001E000A591B4918FB7F894EC91611103C020955B
:1001F0002E2301C02E2B2C938FBF0895CF93DF9316
:1002000090E0FC01E057FF4F2491FC01E458FF4FC0
:100210008491882361F190E0880F991FFC01E859CF
:10022000FF4FC591D491FC01EE58FF4FA591B491B9
:10023000611109C09FB7F894888120958223888333
:10024000EC912E230BC0623061F49FB7F894388193
:10025000822F809583238883EC912E2B2C939FBF34
:1002600006C08FB7F894E8812E2B28838FBFDF91CB
:10027000CF910895CF93DF93EC0160E08E810E94CF
:10028000B20061E08E810E94B20060E08E810E9427
:10029000B2008BE891E00197F1F7DF91CF910895DB
:1002A000CF92DF92EF92FF920F931F93CF93DF9342
:1002B0007C016C0187E0C80ED11CC0E0D0E0062FA5
:1002C00010E0B8010C2E02C0759567950A94E2F70C
:1002D0006170F60181916F010E94B2002196C430D5
:1002E000D10579F7C701DF91CF911F910F91FF9051
:1002F000EF90DF90CF900C943A01CF92DF92EF9283
:10030000FF920F931F93CF93DF93EC01F62E642F90
:100310008C810E94B2008D818F3F19F060E00E94B5
:10032000B2008F850F2D10E084FF25C06E0187E09D
:10033000C80ED11CE12CF12CB8010E2C02C0759511
:1003400067950A94E2F76170F60181916F010E944E
:10035000B200FFEFEF1AFF0A88E0E816F10461F738
:10036000CE01DF91CF911F910F91FF90EF90DF9021
:10037000CF900C943A01B80184E0759567958A9501
:10038000E1F7CE010E9450016F2DCE01DF91CF9198
:100390001F910F91FF90EF90DF90CF900C94500140
:1003A00041E00E947D0181E090E0089540E00C94DE
:1003B0007D01EF92FF920F931F93CF93DF93EC0198
:1003C000623018F08F8588608F876B8B1C8A80E481
:1003D0008D8B80E18E8B80E58F8B61E08C810E941C
:1003E000FE008D818F3F19F061E00E94FE0061E008
:1003F0008E810E94FE007E0187E0E80EF11C00E085
:1004000010E08F8584FD03C084E090E002C088E0A6
:1004100090E0081719074CF461E0F70181917F0122
:100420000E94FE000F5F1F4FECCF8BE39DE0019712
:10043000F1F760E08C810E94B20060E08E810E9442
:10044000B2008D818F3F19F060E00E94B2006F858D
:1004500064FD1DC063E0CE010E9450010BE416E470
:10046000C8010197F1F763E0CE010E945001C80175
:100470000197F1F763E0CE010E94500183E592E01D
:100480000197F1F762E0CE010E94500116C0606250
:10049000CE010E94D6018BE496E40197F1F76F85B7
:1004A0006062CE010E94D60183E592E00197F1F7E8
:1004B0006F856062CE010E94D6016F856062CE01B9
:1004C0000E94D60184E0888B6CE0CE010E94D601A8
:1004D00061E0CE010E94D6018BE39FE10197F1F725
:1004E00082E0898B66E0CE01DF91CF911F910F9161
:1004F000FF90EF900C94D601009769F0FC010190F9
:100500000020E9F73197AF01481B590BBC018BE282
:1005100091E00C94870080E090E008958F929F9284
:10052000AF92BF920F931F93CF93DF93CDB7DEB7F8
:10053000A1970FB6F894DEBF0FBECDBF19A242300F
:1005400008F44AE08E010F5D1F4F842E912CA12CE0
:10055000B12CA50194010E943D06E62FB901CA0104
:1005600001501109EA3014F4E05D01C0E95CD801E2
:10057000EC93232B242B252B61F7C8010E947C02CE
:10058000A1960FB6F894DEBF0FBECDBFDF91CF911D
:100590001F910F91BF90AF909F908F9008950E94F0
:1005A00065061F920F920FB60F9211242F933F935F
:1005B0008F939F93AF93BF938091230190912401D8
:1005C000A0912501B09126013091220123E0230F53
:1005D0002D3720F40196A11DB11D05C026E8230F7B
:1005E0000296A11DB11D20932201809323019093B7
:1005F0002401A0932501B093260180911E019091C2
:100600001F01A0912001B09121010196A11DB11DF2
:1006100080931E0190931F01A0932001B0932101AC
:10062000BF91AF919F918F913F912F910F900FBEEE
:100630000F901F901895789484B5826084BD84B51E
:10064000816084BD85B5826085BD85B5816085BDCD
:1006500080916E00816080936E0010928100809185
:10066000810082608093810080918100816080930D
:100670008100809180008160809380008091B10032
:1006800084608093B1008091B00081608093B0005D
:1006900080917A00846080937A0080917A008260F1
:1006A00080937A0080917A00816080937A008091B3
:1006B0007A00806880937A001092C10060E080E147
:1006C0000E94FE0062E08BE291E00E94D901C0E04E
:1006D000D0E012E410937C0080917A0080648093D3
:1006E0007A0080917A0086FDFCCF6091780080913D
:1006F000790070E0782B072E000C880B990B0E9474
:100700001605609327017093280180932901909327
:100710002A01E1E080913E018111E0E0E195F0E005
:10072000E55DFE4F648960688BE291E00E94D6012E
:1007300088E091E00E947C02C0902701D0902801BF
:10074000E0902901F0902A01A7019601C701B601A6
:100750000E943806882319F082E191E01AC0460110
:100760005701E894B7F82FEF3FEF4FE75FE7C50178
:10077000B4010E94380681110FC02FEF3FEF4FE701
:100780005FE7C501B4010E94E00418162CF486E16D
:1007900091E00E947C0282C02FEF3FEF4FE75FE4C1
:1007A000C701B6010E94C60518161CF48AE191E043
:1007B000F0CF2FEF3FEF4FE75FECC701B6010E948C
:1007C000E00487FDF3CF20E030E0A901C701B601C6
:1007D0000E94E00487FF0FC0E0912B01F0912C01F3
:1007E0000190F081E02D6DE28BE291E00995F7FA3E
:1007F000F094F7F8F0942AE037ED43EA5BE3C701A1
:10080000B6010E9474044B015C010E94E5046B0177
:100810007C010E9414059B01AC01C501B4010E943A
:1008200073044B015C014AE0C701B6010E948E02CD
:10083000E0912B01F0912C010190F081E02D6EE20E
:100840008BE291E0099520E030E040E251E4C501FF
:10085000B4010E94CB054B015C010E94E5046B01D1
:10086000E12CF12C4AE0C701B6010E948E02C701BB
:10087000B6010E9414059B01AC01C501B4010E94A0
:10088000730420E030E040E251E40E94CB050E9476
:10089000E50480E090E04AE00E948E02209709F48F
:1008A00019CF0E94000016CFEBE2F1E01382128212
:1008B00084E091E0918380838BE084838FEF858354
:1008C0008AE0868385E0878384E0808783E0818770
:1008D00082E082871386148615861686178661E065
:1008E000CF010C94D9015058BB27AA270E948B0432
:1008F0000C948C050E947E0538F00E94850520F03E
:1009000039F49F3F19F426F40C947B050EF4E0951E
:10091000E7FB0C947505E92F0E949D0558F3BA1763
:10092000620773078407950720F079F4A6F50C9405
:10093000BF050EF4E0950B2EBA2FA02D0B01B901C7
:1009400090010C01CA01A0011124FF27591B99F045
:10095000593F50F4503E68F11A16F040A22F232F51
:10096000342F4427585FF3CF469537952795A795A1
:10097000F0405395C9F77EF41F16BA0B620B730B48
:10098000840BBAF09150A1F0FF0FBB1F661F771FB9
:10099000881FC2F70EC0BA0F621F731F841F48F46E
:1009A000879577956795B795F7959E3F08F0B0CFF7
:1009B0009395880F08F09927EE0F979587950895DE
:1009C0000E94510508F481E008950E94A50588F071
:1009D0009F5798F0B92F9927B751B0F0E1F0660F03
:1009E000771F881F991F1AF0BA95C9F714C0B13044
:1009F00091F00E94BF05B1E008950C94BF05672FE8
:100A0000782F8827B85F39F0B93FCCF38695779572
:100A10006795B395D9F73EF490958095709561955B
:100A20007F4F8F4F9F4F0895E89409C097FB3EF486
:100A300090958095709561957F4F8F4F9F4F99232B
:100A4000A9F0F92F96E9BB279395F69587957795A9
:100A50006795B795F111F8CFFAF4BB0F11F460FF69
:100A60001BC06F5F7F4F8F4F9F4F16C0882311F0C1
:100A700096E911C0772321F09EE8872F762F05C0D5
:100A8000662371F096E8862F70E060E02AF09A9570
:100A9000660F771F881FDAF7880F9695879597F965
:100AA0000895990F0008550FAA0BE0E8FEEF1616FF
:100AB0001706E807F907C0F012161306E407F50752
:100AC00098F0621B730B840B950B39F40A2661F0C6
:100AD000232B242B252B21F408950A2609F4A14069
:100AE000A6958FEF811D811D089597F99F6780E876
:100AF00070E060E008959FEF80EC089500240A9470
:100B00001616170618060906089500240A941216E8
:100B10001306140605060895092E0394000C11F41B
:100B2000882352F0BB0F40F4BF2B11F460FF04C0C8
:100B30006F5F7F4F8F4F9F4F089557FD9058440F21
:100B4000551F59F05F3F71F04795880F97FB991F2C
:100B500061F09F3F79F087950895121613061406E9
:100B6000551FF2CF4695F1DF08C016161706180676
:100B7000991FF1CF86957105610508940895E89451
:100B8000BB2766277727CB0197F908950E94510567
:100B900008F48FEF08950E94DE050C948C050E94E6
:100BA0007E0538F00E94850520F0952311F00C9405
:100BB00075050C947B0511240C94C0050E949D05BD
:100BC00070F3959FC1F3950F50E0551F629FF001A0
:100BD000729FBB27F00DB11D639FAA27F00DB11DB9
:100BE000AA1F649F6627B00DA11D661F829F222742
:100BF000B00DA11D621F739FB00DA11D621F839FC9
:100C0000A00D611D221F749F3327A00D611D231F9E
:100C1000849F600D211D822F762F6A2F11249F57EC
:100C200050409AF0F1F088234AF0EE0FFF1FBB1FEF
:100C3000661F771F881F91505040A9F79E3F5105AE
:100C400080F00C9475050C94C0055F3FE4F3983E6A
:100C5000D4F3869577956795B795F795E7959F5F58
:100C6000C1F7FE2B880F911D9695879597F90895EA
:100C70000E945105880B990B0895A1E21A2EAA1B18
:100C8000BB1BFD010DC0AA1FBB1FEE1FFF1FA2173C
:100C9000B307E407F50720F0A21BB30BE40BF50B39
:100CA000661F771F881F991F1A9469F760957095C2
:100CB000809590959B01AC01BD01CF010895EE0F89
:100CC000FF1F0590F491E02D099481E090E0F894E5
:080CD0000C946A06F894FFCFB2
:100CD80000000000D0018700566F6C746167653AA8
:0E0CE80020006E616E00696E66006F76660019
:00000001FF
