:100000000C9463000C948B000C948B000C948B006C
:100010000C948B000C948B000C948B000C948B0034
:100020000C948B000C948B000C948B000C948B0024
:100030000C948B000C948B000C948B000C948B0014
:100040000C94BF050C948B000C948D050C946705E3
:100050000C948B000C948B000C948B000C948B00F4
:100060000C948B000C948B000000000024002700EF
:100070002A0000000000250028002B0000000000DE
:1000800023002600290004040404040404040202DA
:100090000202020203030303030301020408102007
:1000A0004080010204081020010204081020000012
:1000B0000008000201000003040700000000000027
:1000C00000000906680911241FBECFEFD8E0DEBF8B
:1000D000CDBF22E0AEE7B1E001C01D92AD3BB2075B
:1000E000E1F711E0A0E0B1E0E6EAF7E102C0059037
:1000F0000D92AE37B107D9F710E0C2E6D0E004C0E8
:100100002197FE010E94AB09C136D107C9F70E94B1
:10011000D1060C94C60B0C94000096E0899FD00188
:100120001124A25CBD4F90967C936E935F9791E0F3
:1001300091969C9391979091AA02E091AB02F091D5
:10014000AC02992339F0309751F0811108C08091A9
:100150005A0204C0309719F05C968C910994089566
:100160000895CF92DF92EF92FF920F931F93CF9358
:10017000DF936C017A018B01C0E0D0E0CE15DF0582
:1001800089F0D8016D918D01D601ED91FC9101901E
:10019000F081E02DC6010995892B11F47E0102C082
:1001A0002196ECCFC701DF91CF911F910F91FF9066
:1001B000EF90DF90CF900895FC01538D448D252F53
:1001C00030E0842F90E0821B930B541710F0CF96F1
:1001D000089501970895FC01918D828D981761F023
:1001E000828DDF01A80FB11D5D968C91928D9F5F6E
:1001F0009F73928F90E008958FEF9FEF0895FC0119
:10020000918D828D981731F0828DE80FF11D858DCB
:1002100090E008958FEF9FEF0895FC01918D228D5E
:10022000892F90E0805C9F4F821B91098F739927E3
:10023000089589E891E00E940D0121E0892B09F4DD
:1002400020E0822F0895FC01848DDF01A80FB11DED
:10025000A35ABF4F2C91848D90E001968F739927FC
:10026000848FA689B7892C93A089B1898C918064E9
:100270008C93938D848D981306C00288F389E02DAA
:1002800080818F7D80830895EF92FF920F931F935B
:10029000CF93DF93EC0181E0888F9B8D8C8D981339
:1002A00005C0E889F989808185FD24C0F62E0B8D73
:1002B00010E00F5F1F4F0F731127E02E8C8DE81297
:1002C0000CC00FB607FCFACFE889F989808185FF59
:1002D000F5CFCE010E942301F1CF8B8DFE01E80FF7
:1002E000F11DE35AFF4FF0820B8FEA89FB89808171
:1002F000806207C0EE89FF896083E889F98980817F
:100300008064808381E090E0DF91CF911F910F9115
:10031000FF90EF900895CF93DF93EC01888D8823B1
:10032000C9F0EA89FB89808185FD05C0A889B98962
:100330008C9186FD0FC00FB607FCF5CF808185FF3D
:10034000F2CFA889B9898C9185FFEDCFCE010E94AB
:100350002301E7CFDF91CF91089580E090E0892BD2
:1003600029F00E94190181110C9400000895833036
:1003700081F028F4813099F08230A1F0089587301F
:10038000A9F08830B9F08430D1F4809180008F7D5D
:1003900003C0809180008F7780938000089584B59A
:1003A0008F7702C084B58F7D84BD08958091B000A1
:1003B0008F7703C08091B0008F7D8093B000089547
:1003C000CF93DF93282F30E0F901E255FF4F84915E
:1003D000F901E656FF4FD491F901EA57FF4FC49156
:1003E000CC2391F081110E94B701EC2FF0E0EE0FC9
:1003F000FF1FE458FF4FA591B491EC91ED2381E0EC
:1004000090E021F480E002C080E090E0DF91CF91A5
:100410000895862F0C94E0011F93CF93DF93282F2C
:1004200030E0F901E255FF4F8491F901E656FF4FA4
:10043000D491F901EA57FF4FC491CC23C9F0162F8C
:1004400081110E94B701EC2FF0E0EE0FFF1FEE5874
:10045000FF4FA591B4918FB7F894111105C09C91ED
:10046000ED2FE095E92302C0EC91ED2BEC938FBFCB
:10047000DF91CF911F910895862F642F0C940C0269
:10048000CF93DF9390E0FC01E656FF4F2491FC01EF
:10049000EA57FF4F8491882361F190E0880F991FFC
:1004A000FC01E859FF4FC591D491FC01EE58FF4F74
:1004B000A591B491611109C09FB7F89488812095E6
:1004C00082238883EC912E230BC0623061F49FB7A6
:1004D000F8943881822F809583238883EC912E2B8A
:1004E0002C939FBF06C08FB7F894E8812E2B2883EA
:1004F0008FBFDF91CF910895862F642F0C94400217
:100500003FB7F8948091830190918401A091850177
:10051000B091860126B5A89B05C02F3F19F0019622
:10052000A11DB11D3FBFBA2FA92F982F8827820F79
:10053000911DA11DB11DBC01CD0142E0660F771FC9
:10054000881F991F4A95D1F708952FB7F8946091A5
:100550007F017091800180918101909182012FBF74
:1005600008950F931F93CF93DF93C82FD62F86E064
:10057000C89FF0011124E25CFD4F11A2878D90A16C
:1005800081309105F1F01CF4892B49F043C0823091
:100590009105A9F10397F1F560E070E034C066239E
:1005A000C9F161E070E08C2F0E948D000E94A502CD
:1005B00060939602709397028093980290939902A9
:1005C00029C00E94A50200919602109197022091E5
:1005D000980230919902AB01BC01401B510B620B98
:1005E000730B8091A8029091A902A0E0B0E084175B
:1005F0009507A607B70718F462E070E004C0D111B0
:1006000009C063E070E08C2FDF91CF911F910F91B3
:100610000C948D00DF91CF911F910F910895CF938E
:10062000DF93EC0160E08E810E940C0261E08E811C
:100630000E940C0260E08E810E940C028BE891E027
:100640000197F1F7DF91CF910895CF92DF92EF926A
:10065000FF920F931F93CF93DF937C016C0187E090
:10066000C80ED11CC0E0D0E0062F10E0B8010C2E5F
:1006700002C0759567950A94E2F76170F601819161
:100680006F010E940C022196C430D10579F7C70191
:10069000DF91CF911F910F91FF90EF90DF90CF905E
:1006A0000C940F03CF92DF92EF92FF920F931F9360
:1006B000CF93DF93EC01F62E642F8C810E940C0205
:1006C0008D818F3F19F060E00E940C028F850F2D05
:1006D00010E084FF25C06E0187E0C80ED11CE12C1C
:1006E000F12CB8010E2C02C0759567950A94E2F7BB
:1006F0006170F60181916F010E940C02FFEFEF1A09
:10070000FF0A88E0E816F10461F7CE01DF91CF918E
:100710001F910F91FF90EF90DF90CF900C940F03FB
:10072000B80184E0759567958A95E1F7CE010E943E
:1007300025036F2DCE01DF91CF911F910F91FF9077
:10074000EF90DF90CF900C94250341E00E9452037C
:1007500081E090E0089540E00C945203643008F08A
:1007600063E090913902691710F06FEF690FE62F7F
:10077000F0E0EA5DFD4F9489682F690F606886E2BA
:1007800092E00C94AB0361E00E94AB038BE39FE12A
:100790000197F1F70895EF92FF920F931F93CF9374
:1007A000DF93EC01623018F08F8588608F876B8B48
:1007B0001C8A80E48D8B80E18E8B80E58F8B61E0DD
:1007C0008C810E9440028D818F3F19F061E00E9470
:1007D000400261E08E810E9440027E0187E0E80EC7
:1007E000F11C00E010E08F8584FD03C084E090E000
:1007F00002C088E090E0081719074CF461E0F701A7
:1008000081917F010E9440020F5F1F4FECCF8BE36D
:100810009DE00197F1F760E08C810E940C0260E09E
:100820008E810E940C028D818F3F19F060E00E9442
:100830000C026F8564FD1DC063E0CE010E9425039C
:100840000BE416E4C8010197F1F763E0CE010E94C2
:100850002503C8010197F1F763E0CE010E9425034B
:1008600083E592E00197F1F762E0CE010E94250353
:1008700016C06062CE010E94AB038BE496E4019740
:10088000F1F76F856062CE010E94AB0383E592E0D1
:100890000197F1F76F856062CE010E94AB036F850F
:1008A0006062CE010E94AB0384E0888B6CE0CE01D5
:1008B0000E94AB03CE010E94C30382E0898B66E0F5
:1008C000CE01DF91CF911F910F91FF90EF900C948B
:1008D000AB03089580E090E00895009769F0FC0173
:1008E00001900020E9F73197AF01481B590BBC017B
:1008F00086E292E00C94B10080E090E00895CF93FE
:10090000DF9386E292E00E94C30360E080E00E94F1
:10091000AE0388E491E00E946D048091870190917C
:100920008801892B99F0C0E0D0E0809187019091F7
:100930008801C817D90754F461E08C2F0E94AE03D8
:1009400089E591E00E946D042196EFCFDF91CF9170
:1009500008950E94A80B0F931F93CF93DF93EC0190
:1009600088819981009729F02A813B8126173707D2
:1009700088F48B016F5F7F4F0E94DE0A009761F061
:10098000998388831B830A832C813D81232B11F457
:10099000FC01108281E001C080E0DF91CF911F91C6
:1009A0000F910895EF92FF920F931F93CF93DF93D0
:1009B000EC01198218821B821A821D821C82611529
:1009C000710549F18B01FB0101900020E9F7319796
:1009D0007F01E61AF70AB7010E94AB04288139812A
:1009E00081110DC02115310519F0C9010E94460A77
:1009F000198218821D821C821B821A820CC0FD8201
:100A0000EC82B801C901DF91CF911F910F91FF9046
:100A1000EF900C94BF0BDF91CF911F910F91FF903E
:100A2000EF900895CF93DF9300D000D000D0CDB7E2
:100A3000DEB768E571E0CE0101960E94D204809194
:100A4000B3029091B4020097C9F069817A8161156F
:100A5000710591F04091B5025091B6022D813E8111
:100A60004217530748F00E94BF0B8D819E819093DF
:100A7000B8028093B70218C00E94460A89819A8101
:100A80009093B4028093B3028B819C819093B602C1
:100A90008093B5028D819E819093B8028093B702B6
:100AA0001A8219821C821B821E821D8289819A8170
:100AB0000E94460A109288011092870126960FB66E
:100AC000F894DEBF0FBECDBFDF91CF9108951F9286
:100AD0000F920FB60F9211242F933F934F935F9372
:100AE0006F937F938F939F93AF93BF93EF93FF93F6
:100AF00089E891E00E942301FF91EF91BF91AF91AE
:100B00009F918F917F916F915F914F913F912F9125
:100B10000F900FBE0F901F9018951F920F920FB657
:100B20000F9211242F938F939F93EF93FF93E09154
:100B30009901F0919A018081E0919F01F091A001CB
:100B400082FD12C090818091A2018F5F8F732091EE
:100B5000A301821751F0E091A201F0E0E757FE4FA8
:100B6000958F8093A20101C08081FF91EF919F91A9
:100B70008F912F910F900FBE0F901F9018951F927D
:100B80000F920FB60F9211242F933F938F939F9341
:100B9000AF93BF9380917F0190918001A0918101DB
:100BA000B091820130917E0123E0230F2D3720F494
:100BB0000196A11DB11D05C026E8230F0296A11DB7
:100BC000B11D20937E0180937F0190938001A093BB
:100BD0008101B09382018091830190918401A09161
:100BE0008501B09186010196A11DB11D80938301FD
:100BF00090938401A0938501B0938601BF91AF913A
:100C00009F918F913F912F910F900FBE0F901F904A
:100C1000189510928C0110928B0188EE93E0A0E061
:100C2000B0E080938D0190938E01A0938F01B093DB
:100C3000900184E291E090938A018093890185EC90
:100C400090E0909396018093950184EC90E09093CE
:100C500098018093970180EC90E090939A018093A3
:100C6000990181EC90E090939C0180939B0182EC30
:100C700090E090939E0180939D0186EC90E090938C
:100C8000A00180939F011092A2011092A3011092E3
:100C9000A4011092A50168E571E083EB92E00E9447
:100CA000D2046BE571E08DEA92E00E94D2041092CA
:100CB000400210924402109243021092450282E4D4
:100CC00091E090933F0280933E0280E090E0FC012F
:100CD000E25CFD4F148E10A2178E11A206968C3383
:100CE0009105A9F786E091E09093A1028093A0027C
:100CF00082E091E09093A3028093A20284E080932B
:100D0000A4028093A5028AE091E090939F028093D1
:100D10009E028AE090E09093A7028093A60284EF5F
:100D200091E09093A9028093A8021092AC021092D5
:100D3000AB0210929A0210929B0210929C021092A7
:100D40009D021092AA02109229021092280286E3B4
:100D500091E090932702809326028EE080932A02EE
:100D60008FEF80932B028FE080932C0280E18093A1
:100D70002D0281E180932E0282E180932F0283E194
:100D8000809330021092310210923202109233029C
:100D9000109234021092350261E086E292E00C94E7
:100DA000CB03CF93DF9300D0CDB7DEB7789484B573
:100DB000826084BD84B5816084BD85B5826085BD57
:100DC00085B5816085BD80916E00816080936E00E5
:100DD00010928100809181008260809381008091D7
:100DE0008100816080938100809180008160809388
:100DF00080008091B10084608093B1008091B00048
:100E000081608093B00080917A00846080937A0042
:100E100080917A00826080937A0080917A0081606C
:100E200080937A0080917A00806880937A00109293
:100E3000C100E0919901F0919A0182E08083E091F4
:100E40009501F09196011082E0919701F09198013F
:100E50008FEC80831092A101E0919D01F0919E01A1
:100E600086E08083E0919B01F0919C01808180610C
:100E70008083E0919B01F0919C0180818860808358
:100E8000E0919B01F0919C01808180688083E091DA
:100E90009B01F0919C0180818F7D808362E086E2DE
:100EA00092E00E94CB03412C512C32014394222426
:100EB0002A94322C81E08093AA020E94A50200911C
:100EC0009A0210919B0220919C0230919D02AB01ED
:100ED000BC01401B510B620B730B8091A6029091D9
:100EE000A702A0E0B0E084179507A607B70708F0AF
:100EF00009C110E08091A402181760F4E091A002EB
:100F0000F091A102E10FF11D62E080810E94400298
:100F10001F5FF0CF912C8091A502981608F062C057
:100F2000E92CF12CE091A202F091A302EE0DFF1D3D
:100F300061E080810E944002E091A202F091A30250
:100F4000EE0DFF1D60E080810E940C02D301C20102
:100F5000092C04C0880F991FAA1FBB1F0A94D2F73F
:100F60005C016C01C094D094812C8091A4028816FD
:100F700010F5082D10E08091A0029091A102FC01D3
:100F8000E00FF11F80810E94E0010C5F1F4F000FF6
:100F9000111FF801E25CFD4F892B29F480819181BA
:100FA0008A299B2904C0808191818C219D21918374
:100FB00080838394DACFE091A202F091A302EE0D38
:100FC000FF1D61E080810E940C028091A20290913D
:100FD000A302FC01EE0DFF1D60E080810E94400233
:100FE000939499CFEAE5F2E083819481892B21F4EF
:100FF0001082328221821582369622E0E639F2078B
:1010000099F7E12C26E0F22E8091A402E81608F070
:1010100053C0D12C0E2D10E0000F111F0A5B1D4F85
:101020002091A502D21608F045C0F80160817181B7
:101030000D2C02C0769567950A94E2F761707727C8
:10104000E29E900111242D0D311DE0919E02F09140
:101050009F02E20FF31FA081EEE3F2E080E0458DF6
:10106000568D4217530711F461701AC08F5F369680
:101070008A30A9F7672BE1F0EAE5F2E080E090E042
:101080004081411110C0F89EF001F99EF00D11242D
:10109000E25CFD4FA48F368F258F10A2178E61E082
:1010A0000E94B10205C0019636968A30910541F73B
:1010B000D394B6CFE394A8CF80E090E010E0FC0199
:1010C000E25CFD4F21A1211111E006968C339105C0
:1010D000B1F70E94A50260939A0270939B028093DD
:1010E0009C0290939D02112369F080915F028823F6
:1010F00049F080915D0290915E02019719F4109180
:101100005A0203C01092AA0210E08091000190914F
:101110000101892B41F00E9412050E947F04109268
:10112000010110920001153451F034F480ED810F6B
:101130008A3008F49DC0C9C01335F9F0C6C080914B
:10114000870190918801019790938801809387018E
:101150002091B7023091B8028217930708F0B3C00C
:101160009093B8028093B7022091B3023091B402F9
:10117000F901E80FF91F1082A6C02091B102309149
:10118000B2028091B7029091B8022817390791F501
:101190008091AD029091AE026091B3027091B40261
:1011A000009719F061157105A1F46115710549F0F9
:1011B000232B99F0FB01808190E091958195910915
:1011C0000AC0009751F0232B41F0FC01808190E090
:1011D00002C00E94B60B892B69F486E292E00E945D
:1011E000C30360E080E00E94AE0380E691E00E94CD
:1011F0006D04FFCF86E292E00E94C30360E080E0CE
:101200000E94AE0389E691E00E946D0461E080E0F7
:101210000E94AE0383E791E00E946D040E94800269
:101220004B015C0180EDC82E87E0D82EE12CF12C1B
:101230000E948002DC01CB0188199909AA09BB0927
:10124000883E9340A105B10558F0F1E0CF1AD108CE
:10125000E108F10828EE820E23E0921EA11CB11CC9
:10126000C114D104E104F10419F70E9412052BC046
:1012700019831A820091B7021091B8020F5F1F4FB5
:10128000B80183EB92E00E94AB04882399F020918F
:10129000B3023091B4028091B7029091B802BE01BE
:1012A0006F5F7F4F820F931F0E94BF0B1093B80296
:1012B0000093B702809187019091880101969093E5
:1012C0008801809387010E947F040E94AD01F2CDC6
:1012D0008091AD029091AE020E94460A8091B302C5
:1012E0009091B4020C94460A2F923F924F925F92D3
:1012F0006F927F928F929F92AF92BF92CF92DF9226
:10130000EF92FF920F931F93CF93DF93CDB7DEB78A
:10131000CA1BDB0B0FB6F894DEBF0FBECDBF09941E
:101320002A88398848885F846E847D848C849B8475
:10133000AA84B984C884DF80EE80FD800C811B8183
:10134000AA81B981CE0FD11D0FB6F894DEBF0FBEB2
:10135000CDBFED010895EE0FFF1F0590F491E02D34
:101360000994CF93DF938230910510F482E090E0EE
:10137000E091BB02F091BC0220E030E0C0E0D0E0A0
:10138000309711F14081518148175907C0F0481733
:10139000590761F482819381209719F09B838A8396
:1013A0002BC09093BC028093BB0226C0211531054F
:1013B00019F04217530718F49A01BE01DF01EF013B
:1013C0000280F381E02DDCCF2115310509F1281BC6
:1013D000390B2430310590F412968D919C9113971E
:1013E0006115710521F0FB019383828304C0909302
:1013F000BC028093BB02FD01329644C0FD01E20FA6
:10140000F31F81939193225031092D933C933AC05D
:101410002091B9023091BA02232B41F420911C0192
:1014200030911D013093BA022093B90220911A0124
:1014300030911B012115310541F42DB73EB7409184
:101440001E0150911F01241B350BE091B902F09150
:10145000BA02E217F307A0F42E1B3F0B2817390737
:1014600078F0AC014E5F5F4F2417350748F04E0F00
:101470005F1F5093BA024093B9028193919302C0C7
:10148000E0E0F0E0CF01DF91CF9108950F931F933B
:10149000CF93DF93009709F48CC0FC01329713823D
:1014A00012820091BB021091BC020115110581F45A
:1014B00020813181820F931F2091B9023091BA02AD
:1014C0002817390779F5F093BA02E093B90271C091
:1014D000D80140E050E0AE17BF0750F412962D91AE
:1014E0003C911397AD012115310509F1D901F3CFD5
:1014F0009D01DA013383228360817181860F971FFA
:101500008217930769F4EC0128813981260F371F70
:101510002E5F3F4F318320838A819B819383828317
:10152000452B29F4F093BC02E093BB0242C0139612
:10153000FC93EE931297ED01499159919E01240F6E
:10154000351FE217F30771F480819181840F951F95
:10155000029611969C938E938281938113969C930D
:101560008E931297E0E0F0E0D80112968D919C9155
:101570001397009719F0F8018C01F6CF8D919C918B
:1015800098012E5F3F4F820F931F2091B902309137
:10159000BA022817390769F4309729F41092BC026F
:1015A0001092BB0202C0138212821093BA020093FF
:1015B000B902DF91CF911F910F910895A0E0B0E0A3
:1015C000E4EEFAE00C947809EC01009721F4CB01E9
:1015D0000E94B109B8C0FC01E60FF71F9C01225020
:1015E0003109E217F30708F4ACC0D9010D911C9141
:1015F000119706171707B0F00530110508F49FC0C2
:10160000C80104978617970708F499C0025011097A
:10161000061B170B019311936D937C93CF010E94CE
:10162000460A8DC05B01A01AB10A4C01800E911EC2
:10163000A091BB02B091BC0240E050E0E12CF12C43
:10164000109709F44AC0A815B905D1F56D907C90A2
:101650001197630182E0C80ED11CCA14DB0480F12B
:10166000A3014A195B096A0182E0C80ED11C1296D7
:10167000BC9012971396AC91B5E0CB16D10440F014
:10168000B282A38351834083D9016D937C930AC0B6
:101690000E5F1F4FC301800F911FF901918380835B
:1016A000EB2DFA2FE114F10431F0D7011396FC93DE
:1016B000EE93129744C0F093BC02E093BB023FC08C
:1016C0008D919C9111974817590708F4AC017D0141
:1016D00012960D90BC91A02DB3CF8091B90290913C
:1016E000BA0288159905E1F446175707C8F48091A6
:1016F0001A0190911B01009741F48DB79EB740915C
:101700001E0150911F01841B950BE817F907C8F4BF
:10171000F093BA02E093B902F901718360830FC0BC
:10172000CB010E94B1097C01009759F0A801BE01CC
:101730000E94AD0BCE010E94460AC70104C0CE0133
:1017400002C080E090E0CDB7DEB7EEE00C949409E3
:1017500081E090E0F8940C94C60BFB01DC0102C020
:1017600001900D9241505040D8F70895FB01DC01E3
:101770008D91019080190110D9F3990B0895FB0107
:10178000DC0101900D920020E1F7089510E0C2E61F
:10179000D0E004C0FE010E94AB092196C336D107F8
:0617A000C9F7F894FFCF29
:1017A6000100070605040B0A0908373839453435A0
:1017B600362A3132332D43304B530000BD028000B0
:1017C600000000004401B100DC008B010D01EB00BC
:1017D600FF0000000000A503B1006A0469040000D0
:1017E60000007C023C020902456E7465722070613D
:1017F6007373636F64653A20002A00313233340014
:1018060057656C636F6D652100496E636F72726513
:0E18160063740054727920416761696E21008D
:00000001FF
