:100000000C9462000C948A000C948A000C948A0070
:100010000C948A000C948A000C948A000C948A0038
:100020000C948A000C948A000C948A000C948A0028
:100030000C948A000C948A000C948A000C948A0018
:100040000C9475030C948A000C948A000C948A001A
:100050000C948A000C948A000C948A000C948A00F8
:100060000C948A000C948A000000000024002700F1
:100070002A0000000000250028002B0000000000DE
:1000800023002600290004040404040404040202DA
:100090000202020203030303030301020408102007
:1000A0004080010204081020010204081020000012
:1000B0000008000201000003040700000000000027
:1000C0000000780411241FBECFEFD8E0DEBFCDBF03
:1000D00011E0A0E0B1E0ECE8F9E002C005900D927B
:1000E000AC31B107D9F721E0ACE1B1E001C01D921C
:1000F000A134B207E1F710E0C2E6D0E004C02197D6
:10010000FE010E94B904C136D107C9F70E94BF039E
:100110000C94C4040C940000CF92DF92EF92FF92F3
:100120000F931F93CF93DF936C017A018B01C0E093
:10013000D0E0CE15DF0589F0D8016D918D01D60193
:10014000ED91FC910190F081E02DC6010995892B7C
:1001500011F47E0102C02196ECCFC701DF91CF914F
:100160001F910F91FF90EF90DF90CF900895833013
:1001700081F028F4813099F08230A1F00895873021
:10018000A9F08830B9F08430D1F4809180008F7D5F
:1001900003C0809180008F7780938000089584B59C
:1001A0008F7702C084B58F7D84BD08958091B000A3
:1001B0008F7703C08091B0008F7D8093B000089549
:1001C0001F93CF93DF93282F30E0F901E255FF4FC3
:1001D0008491F901E656FF4FD491F901EA57FF4F98
:1001E000C491CC23C9F0162F81110E94B700EC2FC7
:1001F000F0E0EE0FFF1FEE58FF4FA591B4918FB7BF
:10020000F894111105C09C91ED2FE095E92302C0EF
:10021000EC91ED2BEC938FBFDF91CF911F9108955F
:10022000CF93DF9390E0FC01E656FF4F2491FC0151
:10023000EA57FF4F8491882361F190E0880F991F5E
:10024000FC01E859FF4FC591D491FC01EE58FF4FD6
:10025000A591B491611109C09FB7F8948881209548
:1002600082238883EC912E230BC0623061F49FB708
:10027000F8943881822F809583238883EC912E2BEC
:100280002C939FBF06C08FB7F894E8812E2B28834C
:100290008FBFDF91CF910895CF93DF93EC0160E0A2
:1002A0008E810E94E00061E08E810E94E00060E0AB
:1002B0008E810E94E0008BE891E00197F1F7DF91D9
:1002C000CF910895CF92DF92EF92FF920F931F93F9
:1002D000CF93DF937C016C0187E0C80ED11CC0E096
:1002E000D0E0062F10E0B8010C2E02C0759567957E
:1002F0000A94E2F76170F60181916F010E94E000BB
:100300002196C430D10579F7C701DF91CF911F91B4
:100310000F91FF90EF90DF90CF900C944C01CF9213
:10032000DF92EF92FF920F931F93CF93DF93EC0135
:10033000F62E642F8C810E94E0008D818F3F19F092
:1003400060E00E94E0008F850F2D10E084FF25C043
:100350006E0187E0C80ED11CE12CF12CB8010E2CE7
:1003600002C0759567950A94E2F76170F601819174
:100370006F010E94E000FFEFEF1AFF0A88E0E81625
:10038000F10461F7CE01DF91CF911F910F91FF90A2
:10039000EF90DF90CF900C944C01B80184E07595FC
:1003A00067958A95E1F7CE010E9462016F2DCE011B
:1003B000DF91CF911F910F91FF90EF90DF90CF9041
:1003C0000C94620141E00E948F0181E090E0089569
:1003D00040E00C948F01EF92FF920F931F93CF9305
:1003E000DF93EC01623018F08F8588608F876B8B0C
:1003F0001C8A80E48D8B80E18E8B80E58F8B61E0A1
:100400008C810E9410018D818F3F19F061E00E9464
:10041000100161E08E810E9410017E0187E0E80EEC
:10042000F11C00E010E08F8584FD03C084E090E0C3
:1004300002C088E090E0081719074CF461E0F7016A
:1004400081917F010E9410010F5F1F4FECCF8BE362
:100450009DE00197F1F760E08C810E94E00060E090
:100460008E810E94E0008D818F3F19F060E00E9434
:10047000E0006F8564FD1DC063E0CE010E94620153
:100480000BE416E4C8010197F1F763E0CE010E9486
:100490006201C8010197F1F763E0CE010E94620199
:1004A00083E592E00197F1F762E0CE010E946201DC
:1004B00016C06062CE010E94E8018BE496E40197C9
:1004C000F1F76F856062CE010E94E80183E592E05A
:1004D0000197F1F76F856062CE010E94E8016F8598
:1004E0006062CE010E94E80184E0888B6CE0CE015E
:1004F0000E94E80161E0CE010E94E8018BE39FE1E8
:100500000197F1F782E0898B66E0CE01DF91CF9110
:100510001F910F91FF90EF900C94E801089580E0F7
:1005200090E00895009769F0FC0101900020E9F740
:100530003197AF01481B590BBC0189E291E00C9443
:100540008C0080E090E008958F929F92AF92BF92CE
:10055000CF92DF92EF92FF920F931F93CF93DF938F
:10056000CDB7DEB7A1970FB6F894DEBF0FBECDBFF3
:100570006C01990FEE08FF08F7FE31C0E0912901E8
:10058000F0912A010190F081E02D6DE289E291E085
:1005900009958C0122273327A9012C193D094E0901
:1005A0005F0919A2CE0181967C019AE0892E912CD7
:1005B000A12CB12CCA01B901A50194010E94970494
:1005C000605DF70162937F012115310541055105F9
:1005D00089F7CF010E949202800F911F1DC0A701D1
:1005E000960119A28E010F5D1F4F8AE0C82ED12CF3
:1005F000E12CF12CCA01B901A70196010E949704D0
:10060000605DF80162938F012115310541055105A7
:1006100089F7CF010E949202A1960FB6F894DEBF2F
:100620000FBECDBFDF91CF911F910F91FF90EF9043
:10063000DF90CF90BF90AF909F908F900895CF9311
:10064000DF93EC0120911C0130911D012F5F3F4F82
:1006500030931D0120931C0121313742B4F161E038
:1006600089E291E00E94E8018BE39FE10197F1F7B5
:10067000E1E080913C018111E0E0E195F0E0E75D8F
:10068000FE4F6489606889E291E00E94E80186E19A
:1006900091E00E949202CE010E94A40289E191E0C1
:1006A0000E94920280912701909128010E94A40249
:1006B00010921D0110921C01809127019091280138
:1006C00001969093280180932701809127019091B2
:1006D0002801C817D90724F4109228011092270185
:1006E000DF91CF9108950E94BF041F920F920FB621
:1006F0000F9211242F933F938F939F93AF93BF93A8
:100700008091230190912401A0912501B0912601AF
:100710003091220123E0230F2D3720F40196A11DF3
:10072000B11D05C026E8230F0296A11DB11D20931F
:1007300022018093230190932401A0932501B0937B
:10074000260180911E0190911F01A0912001B0917E
:1007500021010196A11DB11D80931E0190931F01DF
:10076000A0932001B0932101BF91AF919F918F91F0
:100770003F912F910F900FBE0F901F901895789476
:1007800084B5826084BD84B5816084BD85B5826096
:1007900085BD85B5816085BD80916E008160809347
:1007A0006E001092810080918100826080938100B0
:1007B00080918100816080938100809180008160C0
:1007C000809380008091B10084608093B10080911B
:1007D000B00081608093B00080917A008460809343
:1007E0007A0080917A00826080937A0080917A000A
:1007F000816080937A0080917A00806880937A008B
:100800001092C10060E08EE00E94100160E08FE075
:100810000E94100160E080E10E94100160E081E12F
:100820000E94100162E089E291E00E94EB01C0E0C9
:10083000D0E00EE011E0EE24E394F12CF8012191D8
:1008400031918F013327F901E255FF4F8491F9016E
:10085000E656FF4FC490F901EA57FF4FD490DD20D0
:1008600071F081110E94B700ED2DF0E0EE0FFF1F37
:10087000E458FF4FA591B491EC91EC2149F5FFEFBD
:10088000EF1AFF0A85E0E816F104C1F68091000135
:10089000909101018230910571F02CF4019791F44F
:1008A00089E090E00DC08330910541F0049751F448
:1008B0008FE097E205C083E690E002C087EE93E008
:1008C0000E941F03209709F4B4CF0E940000B1CF0B
:1008D0008091000190910101E816F90681F21092D1
:1008E000280110922701F0920101E0920001CECF81
:1008F000E9E2F1E01382128286E091E09183808345
:100900008CE084838FEF85838BE0868385E087830B
:1009100084E0808783E0818782E082871386148663
:1009200015861686178661E0CF010C94EB01A1E2D3
:100930001A2EAA1BBB1BFD010DC0AA1FBB1FEE1F59
:10094000FF1FA217B307E407F50720F0A21BB30BA4
:10095000E40BF50B661F771F881F991F1A9469F720
:1009600060957095809590959B01AC01BD01CF017C
:100970000895EE0FFF1F0590F491E02D099481E09A
:0C09800090E0F8940C94C404F894FFCFAD
:10098C00010000000000E2018C008F028E020E00BC
:0C099C000F0010001100302D003A200068
:00000001FF
