:100000000C945D000C9485000C9485000C94850084
:100010000C9485000C9485000C9485000C9485004C
:100020000C9485000C9485000C9485000C9485003C
:100030000C9485000C9485000C9485000C9485002C
:100040000C94B2020C9485000C9480020C945A0219
:100050000C9485000C9485000C9485000C9485000C
:100060000C9485000C9485000000000024002700FB
:100070002A0000000000250028002B0004040404CE
:100080000404040402020202020203030303030342
:10009000010204081020408001020408102001021F
:1000A00004081020000000080002010000030407FB
:1000B0000000000000000000ED0311241FBECFEF80
:1000C000D8E0DEBFCDBF11E0A0E0B1E0EAE1F9E0A9
:1000D00002C005900D92AA32B107D9F721E0AAE239
:1000E000B1E001C01D92A43DB207E1F710E0CDE5FB
:1000F000D0E004C02197FE010E948004CC35D107D6
:10010000C9F70E94FC020C948B040C940000E6EAF0
:10011000F0E02491E2E9F0E09491EEE7F0E0E49180
:10012000EE2309F43BC0222339F1233091F038F457
:100130002130A9F0223001F524B52F7D12C02730DF
:1001400091F02830A1F02430B9F4209180002F7D67
:1001500003C0209180002F77209380000DC024B52C
:100160002F7724BD09C02091B0002F7703C02091C4
:10017000B0002F7D2093B000F0E0EE0FFF1FEE588F
:10018000FF4FA591B4912FB7F894EC91811103C062
:1001900090959E2301C09E2B9C932FBF0895CF92D4
:1001A000DF92EF92FF920F931F93CF93DF936C0137
:1001B0007A018B01C0E0D0E0CE15DF0589F0D801CF
:1001C0006D918D01D601ED91FC910190F081E02DB2
:1001D000C6010995892B11F47E0102C02196ECCF4E
:1001E000C701DF91CF911F910F91FF90EF90DF90AA
:1001F000CF900895089580E090E00895FC01538D1C
:10020000448D252F30E0842F90E0821B930B5417F0
:1002100010F0CF96089501970895FC01918D828D7D
:10022000981761F0828DDF01A80FB11D5D968C914A
:10023000928D9F5F9F73928F90E008958FEF9FEF55
:100240000895FC01918D828D981731F0828DE80F11
:10025000F11D858D90E008958FEF9FEF0895FC01CB
:10026000918D228D892F90E0805C9F4F821B910998
:100270008F739927089587E391E00E942F0121E071
:10028000892B09F420E0822F0895FC01848DDF0181
:10029000A80FB11DA35ABF4F2C91848D90E00196F9
:1002A0008F739927848FA689B7892C93A089B189E8
:1002B0008C9180648C93938D848D981306C00288F2
:1002C000F389E02D80818F7D80830895EF92FF92E6
:1002D0000F931F93CF93DF93EC0181E0888F9B8D69
:1002E0008C8D981305C0E889F989808185FD24C02B
:1002F000F62E0B8D10E00F5F1F4F0F731127E02EAE
:100300008C8DE8120CC00FB607FCFACFE889F9898A
:10031000808185FFF5CFCE010E944501F1CF8B8D05
:10032000FE01E80FF11DE35AFF4FF0820B8FEA89BF
:10033000FB898081806207C0EE89FF896083E8893C
:10034000F98980818064808381E090E0DF91CF91A2
:100350001F910F91FF90EF900895CF93DF93EC01E1
:10036000888D8823C9F0EA89FB89808185FD05C0D5
:10037000A889B9898C9186FD0FC00FB607FCF5CF0F
:10038000808185FFF2CFA889B9898C9185FFEDCF57
:10039000CE010E944501E7CFDF91CF91089580E023
:1003A00090E0892B29F00E943B0181110C94000000
:1003B00008953FB7F89480912F0190913001A0915A
:1003C0003101B091320126B5A89B05C02F3F19F02D
:1003D0000196A11DB11D3FBFBA2FA92F982F8827C5
:1003E000820F911DA11DB11DBC01CD0142E0660F20
:1003F000771F881F991F4A95D1F708958F929F9272
:10040000AF92BF92CF92DF92EF92FF920E94D901FA
:100410004B015C0188EEC82E83E0D82EE12CF12C34
:100420000E94D901DC01CB0188199909AA09BB09ED
:10043000883E9340A105B10558F021E0C21AD108C9
:10044000E108F10888EE880E83E0981EA11CB11C1B
:10045000C114D104E104F10419F7FF90EF90DF908B
:10046000CF90BF90AF909F908F900895CF93DF93E0
:10047000009779F0FC0101900020E9F73197AF0176
:10048000481B590BBC0187E391E00E94CF00EC01AF
:1004900002C0C0E0D0E042E050E062E171E087E3FA
:1004A00091E00E94CF008C0F9D1FDF91CF910895A6
:1004B0000E9486041F920F920FB60F9211242F9361
:1004C0003F934F935F936F937F938F939F93AF93DC
:1004D000BF93EF93FF9387E391E00E944501FF9163
:1004E000EF91BF91AF919F918F917F916F915F91AC
:1004F0004F913F912F910F900FBE0F901F90189525
:100500001F920F920FB60F9211242F938F939F93E8
:10051000EF93FF93E0914701F09148018081E091D2
:100520004D01F0914E0182FD12C0908180915001E9
:100530008F5F8F7320915101821751F0E09150012C
:10054000F0E0E95CFE4F958F8093500101C08081FF
:10055000FF91EF919F918F912F910F900FBE0F9070
:100560001F9018951F920F920FB60F9211242F9380
:100570003F938F939F93AF93BF9380912B01909163
:100580002C01A0912D01B0912E0130912A0123E080
:10059000230F2D3720F40196A11DB11D05C026E8BB
:1005A000230F0296A11DB11D20932A0180932B01D8
:1005B00090932C01A0932D01B0932E0180912F01D7
:1005C00090913001A0913101B09132010196A11DAD
:1005D000B11D80932F0190933001A0933101B0930E
:1005E0003201BF91AF919F918F913F912F910F90C9
:1005F0000FBE0F901F901895789484B5826084BDCB
:1006000084B5816084BD85B5826085BD85B5816016
:1006100085BD80916E00816080936E001092810094
:10062000809181008260809381008091810081604F
:100630008093810080918000816080938000809110
:10064000B10084608093B1008091B000816080939C
:10065000B00080917A00846080937A0080917A0063
:10066000826080937A0080917A00816080937A0022
:1006700080917A00806880937A001092C100EEE940
:10068000F0E02491EAE8F0E084918823C1F090E062
:10069000880F991FFC01E859FF4FC591D491FC01C7
:1006A000EE58FF4FA591B4919FB7F8948881E22F3F
:1006B000E0958E2388838C91E823EC939FBFE2E939
:1006C000F0E02491EEE7F0E08491882399F090E047
:1006D000880F991FFC01E859FF4FA591B491FC01C7
:1006E000EE58FF4F859194918FB7F894EC91E22BDF
:1006F000EC938FBFE0914701F091480182E0808345
:10070000E0914301F09144011082E0914501F091A4
:1007100046018FEC808310924F01E0914B01F091E4
:100720004C0186E08083E0914901F0914A0180818B
:1007300080618083E0914901F0914A018081886065
:100740008083E0914901F0914A0180818068808333
:10075000E0914901F0914A0180818F7D8083C0E45E
:10076000C0937C0080917A00806480937A008091AD
:100770007A0086FDFCCF609178008091790070E06E
:10078000782B072E000C880B990B0E941C04609399
:10079000330170933401809335019093360120E04A
:1007A00030E048E452E40E94570418167CF485E1D6
:1007B00091E00E94360281E00E9487000E94FE01C3
:1007C00080E00E9487000E94FE0104C08FE191E05A
:1007D0000E9436020E94CF01C3CFE7E3F1E013820B
:1007E000128288EE93E0A0E0B0E084839583A68334
:1007F000B78384E091E09183808385EC90E09587D6
:10080000848784EC90E09787868780EC90E0918BDA
:10081000808B81EC90E0938B828B82EC90E0958BC7
:10082000848B86EC90E0978B868B118E128E138EC4
:10083000148E0895E89409C097FB3EF49095809536
:10084000709561957F4F8F4F9F4F9923A9F0F92F96
:1008500096E9BB279395F695879577956795B79514
:10086000F111F8CFFAF4BB0F11F460FF1BC06F5FFA
:100870007F4F8F4F9F4F16C0882311F096E911C00C
:10088000772321F09EE8872F762F05C0662371F02D
:1008900096E8862F70E060E02AF09A95660F771F41
:1008A000881FDAF7880F9695879597F908950E9423
:1008B0005C0408F48FEF0895990F0008550FAA0BF8
:1008C000E0E8FEEF16161706E807F907C0F0121663
:1008D0001306E407F50798F0621B730B840B950B66
:1008E00039F40A2661F0232B242B252B21F40895BB
:1008F0000A2609F4A140A6958FEF811D811D089558
:10090000EE0FFF1F0590F491E02D099481E090E037
:0A091000F8940C948B04F894FFCFC8
:10091A00000000006601CF00FE00AD012F010D01AD
:10092A0021010D0A00646576696365206F6E0064B3
:0A093A006576696365206F6666004C
:00000001FF
