:100000000C945D000C9485000C9485000C94850084
:100010000C9485000C9485000C9485000C9485004C
:100020000C9485000C9485000C9485000C9485003C
:100030000C9485000C9485000C9485000C9485002C
:100040000C94F0020C9485000C9485000C948500AF
:100050000C9485000C9485000C9485000C9485000C
:100060000C9485000C94850000000008000201003B
:100070000003040700000000000000000000000072
:10008000250028002B0000000000240027002A0083
:10009000040404040404040402020202020203032E
:1000A0000303030301020408102040800102040836
:1000B0001020010204081020510411241FBECFEFAC
:1000C000D8E0DEBFCDBF11E0A0E0B1E0EEE8F9E09E
:1000D00002C005900D92A631B107D9F721E0A6E143
:1000E000B1E001C01D92AB33B207E1F710E0CDE5FE
:1000F000D0E004C02197FE010E94BA04CC35D1079C
:10010000C9F70E943A030C94C5040C94000090E0D7
:10011000FC01EC55FF4F2491FC01E057FF4F849107
:10012000882399F090E0880F991FFC01EA57FF4F50
:10013000A591B491FC01E458FF4F859194918FB73C
:10014000F894EC91E22BEC938FBF0895CF92DF925D
:10015000EF92FF920F931F93CF93DF936C017A017D
:100160008B01C0E0D0E0CE15DF0589F0D8016D919C
:100170008D01D601ED91FC910190F081E02DC60139
:100180000995892B11F47E0102C02196ECCFC7019D
:10019000DF91CF911F910F91FF90EF90DF90CF9063
:1001A000089590E0FC01E859FF4F3491FC01EC55B3
:1001B000FF4F2491FC01E057FF4FE491EE2309F437
:1001C0003BC0332339F1333091F038F43130A9F0AA
:1001D000323001F584B58F7D12C0373091F0383060
:1001E000A1F03430B9F4809180008F7D03C08091FC
:1001F00080008F77809380000DC084B58F7784BD99
:1002000009C08091B0008F7703C08091B0008F7DCE
:100210008093B000F0E0EE0FFF1FE458FF4FA59170
:10022000B4918FB7F894EC91611103C020952E23FF
:1002300001C02E2B2C938FBF0895CF93DF93EC0139
:1002400060E08E810E94D10061E08E810E94D10029
:1002500060E08E810E94D1008BE891E00197F1F778
:10026000DF91CF910895CF92DF92EF92FF920F939B
:100270001F93CF93DF937C016C0187E0C80ED11CE4
:10028000C0E0D0E0062F10E0B8010C2E02C075953A
:1002900067950A94E2F76170F60181916F010E94FF
:1002A000D1002196C430D10579F7C701DF91CF91F4
:1002B0001F910F91FF90EF90DF90CF900C941D0154
:1002C000CF92DF92EF92FF920F931F93CF93DF9322
:1002D000EC01F62E642F8C810E94D1008D818F3F1E
:1002E00019F060E00E94D1008F850F2D10E084FF8F
:1002F00025C06E0187E0C80ED11CE12CF12CB8019D
:100300000E2C02C0759567950A94E2F76170F601AC
:1003100081916F010E94D100FFEFEF1AFF0A88E080
:10032000E816F10461F7CE01DF91CF911F910F9193
:10033000FF90EF90DF90CF900C941D01B80184E006
:10034000759567958A95E1F7CE010E9433016F2D6F
:10035000CE01DF91CF911F910F91FF90EF90DF9031
:10036000CF900C94330141E00E94600181E090E065
:10037000089540E00C946001EF92FF920F931F9359
:10038000CF93DF93EC01623018F08F8588608F8700
:100390006B8B1C8A80E48D8B80E18E8B80E58F8B4C
:1003A0008C810E9487008D818F3F11F00E94870011
:1003B0008E810E9487007E0187E0E80EF11C00E03C
:1003C00010E08F8584FD03C084E090E002C088E0E7
:1003D00090E00817190744F4F70181917F010E940A
:1003E00087000F5F1F4FEDCF8BE39DE00197F1F783
:1003F00060E08C810E94D10060E08E810E94D1007B
:100400008D818F3F19F060E00E94D1006F8564FDFF
:100410001DC063E0CE010E9433010BE416E4C80165
:100420000197F1F763E0CE010E943301C801019703
:10043000F1F763E0CE010E94330183E592E001977A
:10044000F1F762E0CE010E94330116C06062CE0176
:100450000E94B9018BE496E40197F1F76F85606221
:10046000CE010E94B90183E592E00197F1F76F8513
:100470006062CE010E94B9016F856062CE010E9468
:10048000B90184E0888B6CE0CE010E94B90161E083
:10049000CE010E94B9018BE39FE10197F1F782E061
:1004A000898B66E0CE01DF91CF911F910F91FF9074
:1004B000EF900C94B901089580E090E0089543E036
:1004C00050E062E171E083E291E00C94A6008F922B
:1004D0009F92AF92BF920F931F93CF93DF93CDB7AD
:1004E000DEB7A1970FB6F894DEBF0FBECDBF19A23D
:1004F000423008F44AE08E010F5D1F4F842E912C8C
:10050000A12CB12CA50194010E948404E62FB9010D
:10051000CA0101501109EA3014F4E05D01C0E95C40
:10052000D801EC93232B242B252B61F70115110502
:1005300071F0F80101900020E9F73197AF01401BFD
:10054000510BB80183E291E00E94A60002C080E056
:1005500090E0A1960FB6F894DEBF0FBECDBFDF913D
:10056000CF911F910F91BF90AF909F908F90089562
:10057000CF92DF92EF92FF92CF93DF936C01990FAE
:10058000EE08FF08F7FE1FC0E0912301F09124015F
:100590000190F081E02D6DE283E291E00995EC019C
:1005A00066277727CB016C197D098E099F094AE0E0
:1005B0000E9467028C0F9D1FDF91CF91FF90EF90FB
:1005C000DF90CF9008954AE0C701B601DF91CF9147
:1005D000FF90EF90DF90CF900C9467020E94C004D0
:1005E0001F920F920FB60F9211242F933F938F9368
:1005F0009F93AF93BF9380911B0190911C01A09199
:100600001D01B0911E0130911A0123E0230F2D37F7
:1006100020F40196A11DB11D05C026E8230F029606
:10062000A11DB11D20931A0180931B0190931C0101
:10063000A0931D01B0931E018091160190911701A6
:10064000A0911801B09119010196A11DB11D8093CF
:10065000160190931701A0931801B0931901BF914F
:10066000AF919F918F913F912F910F900FBE0F905F
:100670001F901895789484B5826084BD84B581609C
:1006800084BD85B5826085BD85B5816085BD80915D
:100690006E00816080936E001092810080918100D5
:1006A00082608093810080918100816080938100CD
:1006B000809180008160809380008091B10084608F
:1006C0008093B1008091B00081608093B0008091F0
:1006D0007A00846080937A0080917A0082608093AF
:1006E0007A0080917A00816080937A0080917A000C
:1006F000806880937A001092C10062E083E291E00A
:100700000E94BC012FB7F89480911B0190911C01AD
:10071000A0911D01B0911E012FBF80931F019093E6
:100720002001A0932101B09322010BE31FE1CAE055
:10073000D0E080E0E82E80E0F82E2FB7F89480918A
:100740001B0190911C01A0911D01B0911E012FBFB2
:1007500040911F015091200160912101709122016F
:10076000841B950BA60BB70B893E9340A105B105E1
:1007700008F464C02FB7F89480911B0190911C017C
:10078000A0911D01B0911E012FBF80931F01909376
:100790002001A0932101B0932201C0900401D090C8
:1007A0000501A0900201B09003018090000190909B
:1007B000010161E083E291E00E94B901C801019763
:1007C000F1F7E1E0809136018111E0E0E195F0E0A0
:1007D000ED5DFE4F6489606883E291E00E94B9019B
:1007E000C401BE010E9470044C01CB010E94B802FA
:1007F000C4010E94B8020E945F02C501BE010E94AE
:1008000070045C01CB010E94B802C5010E94B802CD
:100810000E945F02C601BE010E9470046C01CB0100
:100820000E94B802C6010E94B80280910401909112
:1008300005010196909305018093040180910401C4
:1008400090910501CC9734F11092050110920401AA
:10085000809102019091030101968C3391052CF453
:10086000909303018093020115C01092030110922E
:10087000020180910001909101010196883191055A
:100880002CF4909301018093000104C010920101A7
:1008900010920001E114F10409F44FCF0E9400000E
:1008A0004CCFE3E2F1E0138212828AE091E091837F
:1008B00080838CE084838FEF85838BE0868385E063
:1008C000878384E0808783E0818782E08287138644
:1008D000148615861686178661E0CF010C94BC013C
:1008E00097FB072E16F4009407D077FD09D00E94DD
:1008F000A60407FC05D03EF4909581959F4F08957E
:10090000709561957F4F0895A1E21A2EAA1BBB1B1B
:10091000FD010DC0AA1FBB1FEE1FFF1FA217B307CB
:10092000E407F50720F0A21BB30BE40BF50B661FE1
:10093000771F881F991F1A9469F7609570958095A5
:1009400090959B01AC01BD01CF010895AA1BBB1B73
:1009500051E107C0AA1FBB1FA617B70710F0A61BBF
:10096000B70B881F991F5A95A9F780959095BC01E0
:10097000CD010895EE0FFF1F0590F491E02D09942D
:0E09800081E090E0F8940C94C504F894FFCF49
:10098E0017003B00370000000000B301A6005C0218
:06099E005B02203A20007C
:00000001FF
