:100000000C945D000C9485000C9485000C94850084
:100010000C9485000C9485000C9485000C9485004C
:100020000C9485000C9485000C9485000C9485003C
:100030000C9485000C9485000C9485000C9485002C
:100040000C94E5030C9485000C94B3030C948D037D
:100050000C9485000C9485000C9485000C9485000C
:100060000C9485000C94850000000008000201003B
:100070000003040700000000000000000000000072
:10008000250028002B0000000000240027002A0083
:10009000040404040404040402020202020203032E
:1000A0000303030301020408102040800102040836
:1000B00010200102040810202F0411241FBECFEFCE
:1000C000D8E0DEBFCDBF11E0A0E0B1E0E4E0FBE0AE
:1000D00002C005900D92A033B107D9F721E0A0E34B
:1000E000B1E001C01D92AE3EB207E1F710E0CDE5F0
:1000F000D0E004C02197FE010E947505CC35D107E0
:10010000C9F70E947A040C9480050C94000090E0DA
:10011000FC01EC55FF4F2491FC01E057FF4F849107
:10012000882399F090E0880F991FFC01EA57FF4F50
:10013000A591B491FC01E458FF4F859194918FB73C
:10014000F894EC91E22BEC938FBF0895CF92DF925D
:10015000EF92FF920F931F93CF93DF936C017A017D
:100160008B01C0E0D0E0CE15DF0589F0D8016D919C
:100170008D01D601ED91FC910190F081E02DC60139
:100180000995892B11F47E0102C02196ECCFC7019D
:10019000DF91CF911F910F91FF90EF90DF90CF9063
:1001A0000895FC01538D448D252F30E0842F90E07D
:1001B000821B930B541710F0CF9608950197089562
:1001C000FC01918D828D981761F0828DDF01A80F5F
:1001D000B11D5D968C91928D9F5F9F73928F90E081
:1001E00008958FEF9FEF0895FC01918D828D9817F0
:1001F00031F0828DE80FF11D858D90E008958FEF2D
:100200009FEF0895FC01918D228D892F90E0805CF5
:100210009F4F821B91098F739927089589E391E07D
:100220000E94020121E0892B09F420E0822F089529
:10023000FC01848DDF01A80FB11DA35ABF4F2C9183
:10024000848D90E001968F739927848FA689B78952
:100250002C93A089B1898C9180648C93938D848D2B
:10026000981306C00288F389E02D80818F7D8083FA
:100270000895EF92FF920F931F93CF93DF93EC01BA
:1002800081E0888F9B8D8C8D981305C0E889F98952
:10029000808185FD24C0F62E0B8D10E00F5F1F4F6F
:1002A0000F731127E02E8C8DE8120CC00FB607FCDF
:1002B000FACFE889F989808185FFF5CFCE010E94C8
:1002C0001801F1CF8B8DFE01E80FF11DE35AFF4FAE
:1002D000F0820B8FEA89FB898081806207C0EE89FA
:1002E000FF896083E889F98980818064808381E067
:1002F00090E0DF91CF911F910F91FF90EF900895C3
:10030000CF93DF93EC01888D8823C9F0EA89FB89BC
:10031000808185FD05C0A889B9898C9186FD0FC0B3
:100320000FB607FCF5CF808185FFF2CFA889B98988
:100330008C9185FFEDCFCE010E941801E7CFDF91B0
:10034000CF91089580E090E0892B29F00E940E0162
:1003500081110C940000089590E0FC01E859FF4FD2
:100360003491FC01EC55FF4F2491FC01E057FF4F05
:10037000E491EE2309F43BC0332339F1333091F09B
:1003800038F43130A9F0323001F584B58F7D12C0D8
:10039000373091F03830A1F03430B9F480918000DA
:1003A0008F7D03C0809180008F77809380000DC087
:1003B00084B58F7784BD09C08091B0008F7703C06A
:1003C0008091B0008F7D8093B000F0E0EE0FFF1FB2
:1003D000E458FF4FA591B4918FB7F894EC91611157
:1003E00003C020952E2301C02E2B2C938FBF089580
:1003F000CF93DF93EC0160E08E810E94AC0161E05D
:100400008E810E94AC0160E08E810E94AC018BE87D
:1004100091E00197F1F7DF91CF910895CF92DF92AC
:10042000EF92FF920F931F93CF93DF937C016C01A8
:1004300087E0C80ED11CC0E0D0E0062F10E0B80164
:100440000C2E02C0759567950A94E2F76170F6016B
:1004500081916F010E94AC012196C430D10579F7DA
:10046000C701DF91CF911F910F91FF90EF90DF9027
:10047000CF900C94F801CF92DF92EF92FF920F93FE
:100480001F93CF93DF93EC01F62E642F8C810E9493
:10049000AC018D818F3F19F060E00E94AC018F8527
:1004A0000F2D10E084FF25C06E0187E0C80ED11C1F
:1004B000E12CF12CB8010E2C02C0759567950A94B9
:1004C000E2F76170F60181916F010E94AC01FFEFCC
:1004D000EF1AFF0A88E0E816F10461F7CE01DF9118
:1004E000CF911F910F91FF90EF90DF90CF900C94E0
:1004F000F801B80184E0759567958A95E1F7CE011A
:100500000E940E026F2DCE01DF91CF911F910F91AE
:10051000FF90EF90DF90CF900C940E0241E00E948C
:100520003B0281E090E0089540E00C943B02EF92A2
:10053000FF920F931F93CF93DF93EC01623018F07B
:100540008F8588608F876B8B1C8A80E48D8B80E120
:100550008E8B80E58F8B8C810E9487008D818F3FF1
:1005600011F00E9487008E810E9487007E0187E043
:10057000E80EF11C00E010E08F8584FD03C084E0EC
:1005800090E002C088E090E00817190744F4F701F2
:1005900081917F010E9487000F5F1F4FEDCF8BE39A
:1005A0009DE00197F1F760E08C810E94AC0160E072
:1005B0008E810E94AC018D818F3F19F060E00E9416
:1005C000AC016F8564FD1DC063E0CE010E940E0288
:1005D0000BE416E4C8010197F1F763E0CE010E9435
:1005E0000E02C8010197F1F763E0CE010E940E02EE
:1005F00083E592E00197F1F762E0CE010E940E02DE
:1006000016C06062CE010E9494028BE496E40197CA
:10061000F1F76F856062CE010E94940283E592E05B
:100620000197F1F76F856062CE010E9494026F8599
:100630006062CE010E94940284E0888B6CE0CE015F
:100640000E94940261E0CE010E9494028BE39FE13C
:100650000197F1F782E0898B66E0CE01DF91CF91BF
:100660001F910F91FF90EF900C949402089580E0F9
:1006700090E008958F929F92AF92BF920F931F9335
:10068000CF93DF93CDB7DEB7A1970FB6F894DEBF57
:100690000FBECDBF19A2423008F44AE08E010F5DB3
:1006A0001F4F842E912CA12CB12CA50194010E94E6
:1006B0005305E62FB901CA0101501109EA3014F4BB
:1006C000E05D01C0E95CD801EC93232B242B252BA2
:1006D00061F70115110571F0F80101900020E9F7AB
:1006E0003197AF01401B510BB80186ED91E00E949C
:1006F000A60002C080E090E0A1960FB6F894DEBF9D
:100700000FBECDBFDF91CF911F910F91BF90AF90E2
:100710009F908F9008950E947B051F920F920FB6B5
:100720000F9211242F933F934F935F936F937F9377
:100730008F939F93AF93BF93EF93FF9389E391E0E0
:100740000E941801FF91EF91BF91AF919F918F91FE
:100750007F916F915F914F913F912F910F900FBEBD
:100760000F901F9018951F920F920FB60F921124A1
:100770002F938F939F93EF93FF93E0914901F09113
:100780004A018081E0914F01F091500182FD12C039
:100790009081809152018F5F8F7320915301821756
:1007A00051F0E0915201F0E0E75CFE4F958F8093AD
:1007B000520101C08081FF91EF919F918F912F9104
:1007C0000F900FBE0F901F9018951F920F920FB6AB
:1007D0000F9211242F933F938F939F93AF93BF93C7
:1007E0008091350190913601A0913701B091380187
:1007F0003091340123E0230F2D3720F40196A11D01
:10080000B11D05C026E8230F0296A11DB11D20933E
:1008100034018093350190933601A0933701B09352
:1008200038018091300190913101A0913201B09155
:1008300033010196A11DB11D8093300190933101C8
:10084000A0933201B0933301BF91AF919F918F91EB
:100850003F912F910F900FBE0F901F901895E9E3D5
:10086000F1E01382128288EE93E0A0E0B0E084838E
:100870009583A683B78384E091E09183808385ECA0
:1008800090E09587848784EC90E09787868780EC5A
:1008900090E0918B808B81EC90E0938B828B82EC4B
:1008A00090E0958B848B86EC90E0978B868B118EF5
:1008B000128E138E148EE6EDF1E01382128286E121
:1008C00091E0918380838CE084838FEF85838BE03C
:1008D000868385E0878384E0808783E0818782E068
:1008E00082871386148615861686178661E0CF01E7
:1008F0000C949702789484B5826084BD84B581603D
:1009000084BD85B5826085BD85B5816085BD8091DA
:100910006E00816080936E00109281008091810052
:10092000826080938100809181008160809381004A
:10093000809180008160809380008091B10084600C
:100940008093B1008091B00081608093B00080916D
:100950007A00846080937A0080917A00826080932C
:100960007A0080917A00816080937A0080917A0089
:10097000806880937A001092C100E0914901F09163
:100980004A0182E08083E0914501F09146011082A6
:10099000E0914701F09148018FEC80831092510162
:1009A000E0914D01F0914E0186E08083E0914B0192
:1009B000F0914C01808180618083E0914B01F09146
:1009C0004C01808188608083E0914B01F0914C0163
:1009D000808180688083E0914B01F0914C0180819F
:1009E0008F7D808362E086ED91E00E949702E1E0D6
:1009F0008091E9018111E0E0E195F0E0EA52FE4FDB
:100A00006489606886ED91E00E94940240E150E0C4
:100A10006EE171E086ED91E00E94A60089E391E02D
:100A20000E940201892BE1F189E391E00E94E0003C
:100A3000C82F880FDD0BCE01C0970A9788F5E0918B
:100A4000E901E23010F4E15001C0E1E0F0E0EA52E7
:100A5000FE4F6489606886ED91E00E949402E09701
:100A60006E010D2E000CEE08FF08D7FF14C0E091B8
:100A7000D601F091D7010190F081E02D6DE286ED75
:100A800091E0099566277727CB016C197D098E09BE
:100A90009F094AE003C04AE0C701B6010E943A0339
:100AA0000E94A201BBCFA1E21A2EAA1BBB1BFD0113
:100AB0000DC0AA1FBB1FEE1FFF1FA217B307E4073D
:100AC000F50720F0A21BB30BE40BF50B661F771F95
:100AD000881F991F1A9469F7609570958095909575
:100AE0009B01AC01BD01CF010895EE0FFF1F0590E2
:100AF000F491E02D099481E090E0F8940C94800545
:040B0000F894FFCF97
:100B0400000000003901A600D10080010201E000CC
:100B1400F400000000008E02A6003703360352657D
:100B240063656976656420646174612E2E2E00000D
:00000001FF
